:1000000000050020390100004D05000045010000F9
:1000100045010000450100004501000045010000C8
:10002000000000000000000000000000450100008A
:1000300045010000000000004501000045010000EE
:1000400069110000B50A0000B50A0000691100003E
:10005000151200006911000055190000E91900008F
:0C006000CD1A0000C11B00006911000057
:10006C00000008500000000000000000000002002A
:10007C00000008500000000000000000000002001A
:10008C0001FF0000866C00008C6D0000A86C000065
:10009C008C0C002080000000080000000100000013
:1000AC00887100000000C8410000A0406F12833A24
:1000BC00E7030000000040410000000000000000C9
:1000CC000000000000000000000000000AD7233CE4
:1000DC000000F041000020426F12833AE703000059
:1000EC000000803F00000000000000000000000045
:1000FC0000000000000000006F12033C00002041D3
:10010C000000003F6F12833AE7030000000020411B
:10011C0000000000000000000000000000000000D3
:08012C0000000000CDCC4C3DA9
:1001380000F006F801F0ECFDFEE7D4D400BE7047ED
:100148002DE9F0414EF60850CEF200004FF4700150
:10015800C0F8801040F20001C0F2000101600020E8
:1001680002F0BEFB00F0C8F8012002F0B9FB46F22D
:10017800AC74C0F20004266840F20010C2F200001D
:1001880080F30A888EB160683746051D04E000BF19
:10019800013F05F10C0508D068790028F8D155E928
:1001A8000101091A03F0A9FEF2E7D4F80880B8F1B2
:1001B800000F13D0E068454600F1080704E000BFCF
:1001C800013D07F1100709D078790028F8D157E9DF
:1001D80002023968121A03F094FEF1E700F076F88B
:1001E80000F024F9032000F045FA40F60E510C20E7
:1001F800C4F208014FF6FF72013821F8022FFBD133
:10020800032000F00BFA032000F034FA0420C4F2B3
:100218000E000021016041608160C160032000F090
:10022800FDF9022002F05CFB96B160684FF480751E
:10023800071D03E0013E07F10C0709D07879B5EBFB
:10024800002FF7D157E90101091A03F056FEF1E72B
:10025800B8F1000F16D0E0684FF4807600F108047A
:1002680005E000BFB8F1010804F110040AD0607974
:10027800B6EB002FF6D154E902022168121A03F0F6
:1002880040FEEFE741F29C04C2F20004204603F06E
:1002980049FE204603F05AFE47F6B64047F6B641F7
:1002A800C0F20000C0F20001091A8C10012C06DB14
:1002B800051F00BF55F8040F8047013CFAD100F034
:1002C80067F90020BDE8F04100F0EEB84EF22000DA
:1002D800C4F20100817940F200520068C2F20002C3
:1002E80052F82110C0F3026021FA00F040F22051C8
:1002F800C2F20001086070472DE9F0414EF28044D7
:10030800C4F201044CF204164AF20350C4F2010686
:1003180024F8820C0120308030880028FCD147F274
:1003280000010120C4F2000126F8040C886008606E
:1003380040F2005742F600504CF2002C4EF22005D5
:10034800C2F20007C0F2311041F200214FF400421E
:1003580043F20063C0F6EB3CC4F20105C0F27A0137
:10036800C0F26E1387E80F00C7E9042CA879296842
:1003780057F82000C1F3026140F22058C840C2F289
:100388000008C8F80000002004F86D0C092085F862
:100398008200207810B96078800740D0207840B972
:1003A80001202070C820012100F084F8207801285D
:1003B800FCD10020607020700020A874287F0007FE
:1003C800FCD543F2021028810020A872287F8006FD
:1003D800FCD50320307641F22120C2F201002860CA
:1003E8000520A871A879296857F82000C1F302618F
:1003F800C840C8F8000042F20C00C4F20000F12125
:1004080001700121F02200F8041C02704FF425400D
:10041800297485F8321024F8820CBDE8F0814FF475
:100428007A7000F001F8C7E77047D4D4B0B543F24A
:100438002404C4F208040025C8200121257100F015
:1004480039F8257020780028FCD1207840F0020087
:10045800207000BF20788007FCD4002004F8020C2C
:1004680014F8020C0028FBD1002004F11C0100BF85
:1004780011F8102002F07F0201F8102011F9102065
:10048800002AFBD401300328F2D1012000F0F2F851
:100498004EF2BB41C4F20101002201200A70BDE8FE
:1004A800B04000F0BBB8D4D47047D4D400BE00BF6D
:1004B800FEE7D4D440F22052C2F20002126841F2A0
:1004C8000023C0F27A039A4201FB00F00FD340F6F2
:1004D800FF01C0F23D0111444DF68362C4F21B32A4
:1004E800A1FB0212110DA0FB0101E9B121E04CF6BC
:1004F800002348F63811C3F69A33C0F24101B3FB22
:10050800F2F2884207D24FF47A7100FB01F0B0FB97
:10051800F2F0800808E09200B0FBF2F0884208D2BE
:100528004FF47A7100FB01F0002808BF704700F013
:1005380005B84FF0FF3000F001B8D4D401380028D6
:10054800FCD170472DE9F04146F22018C4F20008AA
:10055800B8F80000B8F8201040F2245501EA000667
:10056800B7B20024C2F2000503E000BF0134102C2A
:100578000AD027FA04F0C007F8D055F8241000294B
:10058800F4D020468847F1E7A8F81060BDE8F0816C
:1005980070B584B048F248060320C4F2000600F0A3
:1005A80069F86FF0FF0046F6E03430604FF0FF3036
:1005B8000021C0F200040122CDE9020034F8113014
:1005C80002FA01F5002B01F1010118BFA8430B291C
:1005D800F4D14EF280320190002001A9CEF200023F
:1005E80051F8203006EB8005AB6242F8203001302C
:1005F8000328F5D1032000F011F846F2003100205D
:10060800C4F2000134F81020002A18BF41F8202055
:1006180001300B28F6D104B070BDD4D40122EFF319
:10062800108182F3108840F29452C2F2000232F82C
:10063800103023B132F81030013B22F8103032F874
:10064800102012B181F3108870474EF2FE3CC4F2BC
:10065800010C46F29072BCF80030C0F2000232F889
:10066800100043F4254222EA0000ACF8000081F3B0
:100678001088704780B50122EFF3108182F310884B
:1006880040F29452C2F2000232F810308BB94EF2A6
:10069800FE3C46F29073C4F2010CC0F20003BCF8B1
:1006A80000E033F8103043EA0E0343F42543ACF876
:1006B800003032F81030013322F8103081F31088FE
:1006C80080BDD4D42DE9F04FD1E9033702469361B8
:1006D80000231762D3610B880027C4F2170707EBC2
:1006E8004323486913608B7851605F03837891F8DE
:1006F80003E091F804A090F800C090F80190C47845
:10070800002B08BF07F5807705794FF410763F2B4B
:1007180004BF48F24026CFF6FF76002D18BF4FF4ED
:10072800307647EA06059582EFF3108B4FF0010803
:1007380088F310880E8804F03F0763F30D27C6F18D
:10074800100344F20C06C4F20806346808FA03F3EE
:1007580024EA0303336033688BF3108846F2C0132E
:1007680016682B40338013684FEACA341F8244EA64
:100778004E06136846EA4917DF81136840F2685E3F
:1007880083F80CC083791768013BB3FA83F35B09DC
:1007980087F8D03091F906404EF2001C46F200333B
:1007A800CEF2000CC4F20003002CC2F2000E1CD4DE
:1007B8004D7A0CEB04062D0186F800534EF82420E0
:1007C80053F8245025F4803543F8245053F8245026
:1007D80004F01F05640908FA05F50CEB8406BFF35D
:1007E8005F8FC6F880514CF8245091F90740002CCF
:1007F8001DD4897A0CEB0405090185F800134EF81D
:10080800242053F82410012521F4803143F82410C2
:1008180053F8241004F01F01640905FA01F10CEBE8
:100828008405BFF35F8FC5F880114CF8241090F948
:10083800071000291DD4447A0CEB0105240185F822
:1008480000434EF8212053F82140012524F4803438
:1008580043F8214053F8214001F01F04490905FAE3
:1008680004F40CEB8105BFF35F8FC5F880414CF8A9
:10087800214090F9081000291DD4807A0CEB01045E
:10088800000184F800034EF8212053F8210020F4D9
:10089800803043F8210053F8210001F01F000123A4
:1008A800490903FA00F00CEB8103BFF35F8FC3F82B
:1008B80080014CF8210044F243410020C5F2412157
:1008C80010619160BDE8F08FF0B50246D1E90005EE
:1008D800D2E900438E68D3F814C0A080136820F0D2
:1008E800C04E9D8213681E8110684FEA1E43C38064
:1008F80049F6FF70136800EA1544DC82136800EAC1
:10090800164058814EF22000C4F2010040F22053F4
:100918000068C2F200031B68C0F30264A340C0F37E
:10092800021023FA00F044F6D353C1F26203A0FB8D
:100938000303980941F2360300FB03F04DF6836385
:10094800C4F21B33A0FB0303980CD1E90045062829
:100958004FF0060088BF980C45EA04039C0000F19C
:10096800010003D400245B0026D435E00125EFF311
:10097800108485F3108844F20C05C4F208052E682B
:1009880026F480062E602D6884F3108843F2000454
:10099800C4F20F0490252570146884F8DE00CC7822
:1009A8008D68A4064FF4807458BF4FF48064C5F373
:1009B80040752C445B000FD51368022583F8DF00CF
:1009C800C87840064FF4007058BF4FF400608B6839
:1009D80005EA53731844044310684482C868002821
:1009E8003ED003891C051C4629D51468A4F890300C
:1009F80044891568A5F89C4084891568A5F89E4027
:100A080004681568A5F8944049F6FF75166805EA64
:100A18001447A6F896701668C4F3417486F8924095
:100A28004468166805EA1445A6F898401668C4F3A1
:100A38004174A6F89A50156885F893400489A4056E
:100A48000FD5847CC57C16682C4386F8A640C489DB
:100A58001568A5F8A840008A1468A4F8AA0000E060
:100A680000231068A0F89030088A1368A3F8800063
:100A78009CF8040058B11068BEFA8EF7038823F07A
:100A88001F03DB1B1F330380908A1843908244F2B4
:100A98004340C5F241200968D06000201161F0BDD3
:100AA800818A0268002011807047D4D470B590B054
:100AB800EFF303804FF0704101EB006040F26852A1
:100AC8008015C2F200021458EFF3038001EB0060B6
:100AD80046F200318015C4F20001425822F48032F7
:100AE800425040586268A1691288236A00208DF834
:100AF8000200ADF800208DF808000193F9B1E06913
:100B0800EC4690B1034666CB0DF1200EAEE86600C8
:100B180093E866008EE86600BCE86C0001466CC18C
:100B28009CE86C006CC1A16900E060468847E069F8
:100B380028B108A96CC96CC091E86C006CC010B0F1
:100B480070BDD4D4F0B581B00E4640F29E51C2F2C9
:100B580000010A7840F200050446C2F20005DAB93D
:100B680001270F7044F20001EFF3108087F310881B
:100B7800C4F208010A6822F480020A60096880F356
:100B8800108828462C2103F0B8F945F21040C4F229
:100B98000000456000F8047C706890F90010002996
:100BA80005D455F8210028B1082001B0F0BD0B206C
:100BB80001B0F0BD30682171F0B100F10E0104E020
:100BC80012F4400F01F110010AD051F80E2CB2F1C5
:100BD800804FF5D30B88DFB247EA03230B80EFE79A
:100BE80045F21041C4F2000108220A7094F9042069
:100BF80045F822001820087044F20030C4F254402E
:100C08002060002001B0F0BDB0B590F9042046F294
:100C1800003CC4F2000C5CF8223045F2104E23F080
:100C280080734CF8223090F90420C4F2000E42F48C
:100C3800004200BF3EF8023C9A42FBD001F10E028E
:100C480005E000BF13F4400F02F110020AD052F879
:100C58000E3CB3F1804FF5D31488E5B245EA04247D
:100C68001480EFE708228EF8002090F9042040F263
:100C78000003C2F2000343F8221018218EF8001076
:100C880090F904105CF8210040F0807200204CF8C4
:100C98002120B0BD90F9041046F20032C4F20002DF
:100CA80052F8210040F08073002042F8213070474C
:100CB80080B50122EFF3108C82F3108844F2080209
:100CC800C4F208021368864623F48043136013684D
:100CD80042F210038CF310880020C4F2080300BF0E
:100CE80031F8102023F8202001301328F8D144F6D9
:100CF8004341C0F245010020CEF8001080BDD4D495
:100D080042F20001C4F20801802200200A707047F4
:100D18002DE9F0410A7C00230126032A88BF01231C
:100D280006FA02F20374C2600A7C49F20003C4F2B4
:100D3800160303EB02228260D1E905234FF0000E6F
:100D480004464160C361C0E9052ED1F81C80EFF369
:100D5800108386F3108844F210000E7CC4F2080059
:100D68004FF00042056822FA06F625EA06060660F4
:100D7800006883F31088A0684FF425430360A068D7
:100D8800C0F82CE0A068C0F83CE0A068C0F848E0D3
:100D9800087A0D78C605032D4B6808BF06F580361E
:100DA8002F04042DA56828BF47EAC056EE62A06844
:100DB8000261A0684261A0688261A068C0F824E06E
:100DC800A068C0F828E0D8F81800A268D061D8F860
:100DD8001C00A2681062A06838BF013B8366A06847
:100DE80043660A78D8F838C0012A3AD02AB9486840
:100DF8004FF0FF3202EB500335E0D4E90106CB682F
:100E0800B26E0078042838BF01322BB1934203D266
:100E1800042838BF013B26E093424FF0000228BF68
:100E28000122776B032807F0100607F00C07A7F1DB
:100E38000407B7FA87F74FEA571740F2000EB3FADC
:100E480083F34FF0010588BF85EA1617002FC0F21B
:100E5800033E08BF5A09002A1CBF40F2000EC0F228
:100E6800022E4FF0FF33A0684365A06883650878B9
:100E7800042803D3A068C365A0680366D8F83800BF
:100E8800B8BB98F80000012815D1087898F8013007
:100E9800022801D1092606E001D9032603E0092624
:100EA800002B08BF0626180140EA8310304440EAA8
:100EB8000C0040F4807C98F80200012819D10878C9
:100EC80098F80330022802D14FF4102609E002D91D
:100ED8004FF4403605E04FF41026002B08BF4FF4BE
:100EE800C026180540EA8350304440EA0C0040F020
:100EF800807C6068C36993F83020D00705D0986A71
:100F0800A2680138D06493F83020900703D5D86AD6
:100F1800A26801381065D8F834605EB1B078F2780C
:100F28000B7C0006092B40EA027318D8B06858B148
:100F380001220DE0A06800228263A068C0F8882022
:100F4800D8F83800F8B916E0F268002A18BF01226C
:100F5800A068C0F88820B068A268C2F88C00A068B1
:100F68008363D8F8380070B9F07E327F400240EAD7
:100F780042604CEA000C98F8200098F821204CEACE
:100F8800403040EA427C98F83000A26800284FF4CC
:100F9800A00008BF4FF4AA0010640878012804D103
:100FA800A0680022C264A0680265A0684EF003022F
:100FB800C0F834C0A0680263A0684EF00102026362
:100FC800D4E90202C26091F91200497C224600F07D
:100FD8004DF998F9240098F82210224600F046F9B5
:100FE80098F9250098F82310224600F03FF92EB111
:100FF80096F901003178224600F038F945F254019B
:10100800C0F2470100202160BDE8F081D0E902125A
:1010180000204A607047D4D4D0E9021200208A60C8
:101028007047D4D4D0E902120020CA607047D4D4E3
:101038002DE9F041D0E9013502F0030CAC6E1B78C4
:10104800042B38BF0134A9B1A14213D2042B0B469B
:1010580038BF013B1407D5F830E04FF0040458BFFF
:101068000224960705F14C0529D444EA0C0445F8F6
:1010780024302AE0A1424FF0000428BF01246E6BFF
:10108800102707EA0217FE4006F0100706F00C06C4
:10109800043EB6FA86F6B1FA81FE7609032B4FF0C4
:1010A800010888BF88EA1716002E08BF4FEA5E14A9
:1010B8000323D5F830E0002C18BF022306E045F8DA
:1010C8002430856805EB840423650023846855066D
:1010D8002CD4022A2FD173B3A26E4068007804285A
:1010E80038BF013209B1914225D391424FF0000235
:1010F80028BF0122656B032805F4801605F44025F6
:10110800A5F58025B5FA85F54FEA55154FF0010785
:1011180088BF87EA1655002D4FF00300B1FA81F118
:1011280008BF4A09002A18BF022005E0216C41F4D3
:1011380080012164846818462EF4403141EA034155
:10114800BCF1010F18BF8E462EF04072BCF1000FA3
:1011580018BF42EA006100202163BDE8F081D4D4C1
:1011680010B584B0EFF303804FF0704101EB0061DC
:1011780046F200308A15C4F20000135823F4803375
:101188001350135840F26853C2F200039C58626827
:101198001278012A20D1D4E9022309169360A268A3
:1011A80000239364A268D364A268136550F82120D1
:1011B80022F4803240F8212050F8210001F01F006D
:1011C800012202FA00F04EF280224909CEF2000212
:1011D800BFF35F8F42F821006169A1B1A06930B106
:1011E8008368D0E900C20393CDE901C200E001A8F9
:1011F800E36900220271826003608847A06910B128
:1012080001AB0ECB0EC004B010BDD4D410B584B061
:10121800EFF303804FF0704101EB006046F20031BC
:101228008015C4F20001425822F4803242504158DD
:1012380040F26851C2F200010C58A06930B18268CE
:10124800D0E900130392CDE9011300E001A80321BE
:10125800017100218160E169626901609047A069BC
:1012680010B101AB0ECB0EC004B010BD002848BFB2
:1012780070474EF2001CCEF2000C090140EA0C0344
:1012880083F8001340F26851C2F2000141F82020AF
:1012980046F20031C4F2000151F8202022F48032D5
:1012A80041F8202051F8201000F01F01012202FA15
:1012B80001F11C2202EAD00040EA0C02BFF35F8F62
:1012C800C2F8801140F80C107047D4D480B545F2AC
:1012D8005422C5F24F020260084600F02BF80020A5
:1012E80080BDD4D46FF03F0000EA9100C9B200EB92
:1012F800810040F60001C4F208014058C0F34001E3
:10130800002011707047D4D4C8B2012383409BB227
:101318004FF4803C002A08BF0CFA00F36FF001007C
:1013280000EAD11008220101C4F20802002053503B
:101338007047D4D470B5044600F062F840F2645C9B
:10134800EFF31080012181F31088C2F2000CDCF861
:10135800001039B940F60351C4F2080100220A709E
:1013680040220A70DCF800100131CCF8001080F33C
:101378001088208828B340F6000E0021C4F2080E19
:1013880008E000BF0EEB801040F8223020880131C1
:10139800814216D2606800EBC102928850F8313061
:1013A800100ADD03D2B2EDD50EEB801555F8226098
:1013B80026F4803645F8226023F4803645F822600A
:1013C800E0E7EFF31081012080F31088DCF80000DB
:1013D80020B1DCF800000138CCF80000DCF800008F
:1013E80010B181F3108870BD40F60350C4F20800B4
:1013F800002202708022027081F3108870BDD4D45C
:101408002DE9F04F81B00446008800285ED043F2F1
:1014180040084EF2BB4A46F6900BC4F20808002674
:10142800C4F2010AC0F2000B4FF0010904E000BF4A
:1014380020880136864249D2002708E008F81700BC
:10144800C8200121FFF736F80137032FF0D0606874
:101458003BF8172000EBC60081889142F4D1006860
:101468009AF8001000F0B85009FA07F5B0F1807F3B
:1014780005EA010014D150B90120FFF7FBF89AF8EA
:10148800000028438AF800000120FFF7C7F818F980
:1014980017000028D8D418F8170040F08000CDE7CE
:1014A80050B10120FFF7E6F89AF80000A8438AF83F
:1014B80000000120FFF7B2F818F91700B0F1FF3F5C
:1014C800C2DC18F8170000F07F00B7E701B0BDE8EC
:1014D800F08FD4D42DE9F04F85B004464AF20008C5
:1014E8000878C4F211080F6908EB00200D4600F1D6
:1014F80004067FB178684FF0006100680160D7E9A1
:10150800011238680B689E601268904710B105B0E8
:10151800BDE8F08F686988B141684FF40022096816
:101528000A60D0E9011200680B685E601268904793
:10153800002F18BF00281ED10028E8D1D5E90601E0
:101548002B78606200206A7AE162A06208EB0320CF
:10155800B0216560AF7AEE7AA060002A08BFB82192
:10156800286A47EA460706786D7B47EA053766B179
:1015780041F001010FE0BA683968126A044608466A
:101588009047204605B0BDE8F08F012B03D8002A0C
:1015980008BF47F08007867890F8038027F0700727
:1015A800039647EA0816077A437890F804B090F84B
:1015B80005E0857907F0030746EA870904952AB10B
:1015C800002200260292CDE9002208E0427A49F47E
:1015D80060490292827A10260192C27A009201250D
:1015E800EFF3108285F31088676844F2040C3F78A3
:1015F800C4F2080CC7F11307DCF800A005FA07F7D6
:101608002AEA0707CCF80070DCF8007082F310882B
:10161800A26821EAC311D7780027D7705A0042EA96
:101628004312A368114319700121BEF1010F08BFCD
:101638000321BEF1000F18BF0E430399A26801FAF7
:1016480008F151702021BBF1020F08BF3021A268B8
:10165800BBF1000F08BF59469170C079A16846F2E6
:1016680000378872A06802994FF680630173A068FA
:1016780001994FF6005C4173A0680099C4F2000715
:101688008173A068CFF6FF73C673A068CFF6FF7C9E
:10169800A0F81090A068049980F82010A068102184
:1016A80080F8211066684EF2004096F9025040F228
:1016B8006851CEF20000002DC2F200011AD4B679AA
:1016C80001223601465541F8254057F8256026F491
:1016D800803647F8256057F8256005F01F066D0924
:1016E80002FA06F600EB8505BFF35F8FEE5045F86A
:1016F8000C60666896F90150002D19D4767901229C
:101708003601465541F8254057F8256026F48036BD
:1017180047F8256057F8256005F01F06B2406E09A6
:1017280000EB8606BFF35F8FF25046F80C20666820
:10173800327A96F904601201825541F8264057F82A
:10174800262022F4803247F8262057F8262006F073
:101758001F02012707FA02F2770900EB8707BFF398
:101768005F8FFA5047F80C206268D37992F903200A
:101778001B01835445F24900C5F253202060002024
:1017880041F8224005B0BDE8F08FD4D480B582B0CE
:101798009C4613460022CDF800C000F003F802B0C2
:1017A80080BDD4D4F0B581B087683F787F0619D45E
:1017B8004668002700F10C0E8EE88600876177697D
:1017C800DDF818C0002FC36180F820C04FD0BCF1ED
:1017D800100F836109D37F6802253F683E6865F36F
:1017E8001D760CE0082001B0F0BD7F68BCF1070F42
:1017F8003F683E6826F0405688BF46F080563E60F7
:10180800476802257F697F683F683E6865F39346AD
:101818003E6047681D467C696768D7F800C00F4678
:10182800ACF80E30CCF808200AB1064611E0DCF816
:101838000010064621F44021CCF8001040684469A5
:101848006068D0F800C040F2A050C2F20000CCF8A6
:101858000800A16820684A686146904708B101B04D
:10186800F0BD3046766890F820C02B46394632697C
:10187800002A43D0BCF1100F436106D352680226F8
:101888001268176866F31D7709E05268BCF1070F04
:101898001268176827F0405788BF47F080571760CD
:1018A80042680226126952681268176866F39B67D5
:1018B80017604268126952681268D381516061B931
:1018C800116821F040611160416840F2A452096931
:1018D800C2F20002496809684A60816804460A78C9
:1018E80002F0DF020A704068016907C95268096896
:1018F80090470028B3D194F820C020468168BCF1F5
:10190800100FCB7A0A8A03D303F09F03203306E033
:10191800BCF1070F8CBF03F09F0343F040030CF1A9
:101928000107FB26BCF10F0F88BF06EB970CCB72A3
:1019380022F47062816842EA0C220A828068017887
:1019480041F060010170002001B0F0BDEFF30380A9
:101958004FF0704101EB006046F200318015C4F28F
:101968000001425822F480324250415840F26851F6
:10197800C2F200010858D0E9061291421FD002694C
:1019880042B190F82030102B07D383685B6842F887
:1019980021300EE0826852680BE0D0F808C0072BAF
:1019A80003D89CF80430535403E0BCF8043022F800
:1019B8001130C26901319142816118BF7047406896
:1019C800012290F9030000F01F0102FA01F14EF222
:1019D80000124009CEF2000242F820107047D4D419
:1019E800EFF303804FF0704246F2003102EB0060E3
:1019F800C4F200018015425822F480324250425805
:101A080040F26852C2F2000210584268136AABB33F
:101A18005B78012B32D1C369D0F814C0013B9C45D7
:101A28001CD192F903204EF2001C51F82230CEF25C
:101A3800000C23F4803341F8223051F8221002F0D0
:101A48001F010123520903FA01F10CEB8203BFF3D2
:101A58005F8FC3F880114CF822100FE0116969B14B
:101A680092F90310012301F01F0203FA02F24EF269
:101A780000134909CEF2000343F821204169C269E5
:101A8800914208BF7047C26842B190F82030102BCD
:101A980008D352F8212083685A600FE08268002337
:101AA80053600BE0D0F808C0072B03D8525C8CF8C1
:101AB800042003E032F81120ACF804200131416120
:101AC8007047D4D410B584B0EFF303814FF070425F
:101AD80046F2003002EB0161C4F200008A15135887
:101AE80023F480331350135840F26853C2F20003B2
:101AF8009C58A268D278920703D56268527A012A64
:101B080058D10B164EF2801C03F01F010122CEF2B1
:101B1800000C02FA01F15B094CF82310BFF34F8F58
:101B2800BFF36F8F616891F90230002B0AD403F07C
:101B38001F0102FA01F15A094CF82210BFF34F8F26
:101B4800BFF36F8FA1680A7802F0BF020A7061685C
:101B580091F90220002A15D450F8221021F480317E
:101B680040F8221050F8220002F01F00012101FA6B
:101B780000F051090CEB8101BFF35F8FC1F8000140
:101B880041F8800CA06A30B18268D0E90013039252
:101B9800CDE9011300E001A86168626A0978E36A87
:101BA80001600121017183609047A06A10B101AB07
:101BB8000ECB0EC004B010BDF0B583B04FF070412D
:101BC800EFF3038001EB006640F26851B015C2F2F2
:101BD80000010C58606890F902104EF200100029BC
:101BE800CEF200000DD401F01F020123490903FAC7
:101BF80002F200EB8101C1F88020BFF34F8FBFF3E1
:101C08006F8FA16846F200350A78C4F2000502F029
:101C1800BF020A70616891F90210002915D455F8BD
:101C28002120012322F4803245F8212055F8212073
:101C380001F01F02490903FA02F200EB8103BFF326
:101C48005F8FC3F8802140F82120A0680021C77861
:101C5800C1703A0718D5A06A30B18268D0E900137C
:101C68000292CDE9001300E068466168626A09786B
:101C7800E36A01600521017183609047A06A00282A
:101C88001CBF9DE80E000EC0F80718D0A06A30B13E
:101C98008268D0E900130292CDE9001300E068469B
:101CA8006168626A0978E36A0160042101718360EE
:101CB8009047A06A00281CBF9DE80E000EC0F8439C
:101CC80010F0140F4FEA266618D1A06A30B1826866
:101CD800D0E900130292CDE9001300E0684661687C
:101CE800626A0978E36A016008210171836090479C
:101CF800A06A00281CBF9DE80E000EC055F82600FB
:101D080020F4803045F8260055F8260003B0F0BDD1
:101D180080B500F02DFD002080BDD4D48078002847
:101D280018BF704740F2C060C2F200000121017084
:101D38007047D4D48078002818BF704740F2C1603B
:101D4800C2F20000012101707047D4D40079002844
:101D580018BF704740F2C260C2F200000121017052
:101D68007047D4D40079012818BF704710B540F2E5
:101D7800B050C2F2000040F2051101220124FFF721
:101D8800C3FA40F24C00C2F200000470BDE81040F3
:101D98007047D4D40079002818BF704740F2C86053
:101DA800C2F20000D0E90012013142F10002C0E99C
:101DB800001270477047D4D47047D4D42DE9F0414D
:101DC8008EB040F25C08C2F20008404601F038FECE
:101DD80047F28811C0F20001404601F079FF46F64B
:101DE8000C40C0F2000001ACECC82146ECC10088F0
:101DF8000022088040460021234601F04DFF40F2B2
:101E0800D060C2F20000D0F8D000006902F06DF88E
:101E18000B4646F653610246C0F20001204602F026
:101E28009FF8404600210822234601F035FF40F282
:101E38007006C2F20006706902F057F80B4646F6C3
:101E480096410246C0F20001204602F089F8404659
:101E580000211822234601F01FFF40F29C07C2F21E
:101E6800000797ED050AB5EE400AF1EE10FA11D811
:101E78009FED2E1AB4EE410AF1EE10FA0ADD46F68D
:101E88003C40C0F200002EC82EC401888078218012
:101E9800A0700CE010EE100A02F027F80B4646F688
:101EA80047710246C0F2000101A802F059F840F259
:101EB8005C04C2F2000401AD2046002120222B461A
:101EC80001F0EAFE97ED050A96ED051A20EE010AE3
:101ED80010EE100A02F009F80B4646F66541024674
:101EE800C0F20001284602F03BF8204600212822D3
:101EF8002B4601F0D1FE41F28C00C2F200000078BE
:101F080046F6286146F61753C0F20001C0F20003F6
:101F1800002808BF0B4620460021302201F0BCFEF5
:101F2800204601F093FC0EB0BDE8F0816F1283BA31
:101F380040F2D060C2F2000000214160018143F606
:101F48007951C0F20001416643F61951C0F200010F
:101F5800C0F8C41043F6E141C0F20001C0F8941083
:101F680043F69551C0F20001416341F6C551C0F2F4
:101F78000001C16040F29C01C2F20001C0F8D0101B
:101F88007047D4D42DE9F0418EB040F25C08C2F21B
:101F98000008404601F054FD47F28811C0F20001E4
:101FA800404601F095FE46F6F830C0F2000001AC5C
:101FB80090E8EC002146ECC140460021002223466F
:101FC80001F06AFE40F2A470C2F20000D0F8D0001E
:101FD800006901F08AFF0B4646F615610246C0F219
:101FE8000001204601F0BCFF40460021082223469C
:101FF80001F052FE40F27006C2F20006706901F06C
:1020080074FF0B4646F696410246C0F20001204690
:1020180001F0A6FF404600211822234601F03CFEAD
:1020280040F29C07C2F2000797ED050AB5EE400A98
:10203800F1EE10FA11D89FED2F1AB4EE410AF1EE25
:1020480010FA0ADD46F63C40C0F200002EC82EC445
:10205800018880782180A0700CE010EE100A01F051
:1020680044FF0B4646F647710246C0F2000101A83C
:1020780001F076FF40F25C04C2F2000401AD204694
:10208800002120222B4601F007FE97ED050A96ED68
:10209800051A20EE010A10EE100A01F026FF0B4681
:1020A80046F665410246C0F20001284601F058FF95
:1020B8002046002128222B4601F0EEFD41F28C003B
:1020C800C2F20000007846F6286146F61753C0F2BF
:1020D8000001C0F20003002808BF0B46204600217B
:1020E800302201F0D9FD204601F0B0FB0EB0BDE86A
:1020F800F08100BF6F1283BA40F2A470C2F20000F0
:1021080000214160018143F67951C0F20001416626
:1021180043F61951C0F20001C0F8C41043F6E1417A
:10212800C0F20001C0F8941043F69551C0F20001C6
:10213800416341F68D71C0F20001C16040F2C801EF
:10214800C2F20001C0F8D0107047D4D42DE9F04194
:102158008EB040F25C08C2F20008404601F070FC04
:1021680047F28811C0F20001404601F0B1FD46F681
:102178005040C0F2000001ACECC82146ECC1007828
:102188000022087040460021234601F085FD40F6F4
:102198007800C2F20000D0F8D000006901F0A5FE76
:1021A8000B4646F634610246C0F20001204601F0B3
:1021B800D7FE404600210822234601F06DFD40F27B
:1021C8007006C2F20006706901F08FFE0B4646F6F3
:1021D80096410246C0F20001204601F0C1FE404689
:1021E80000211822234601F057FD40F29C05C2F257
:1021F800000595ED050AB5EE400AF1EE10FA11D882
:102208009FED3A1AB4EE410AF1EE10FA0ADD46F6ED
:102218003C40C0F200008EC88EC4018880782180BE
:10222800A0700CE010EE100A01F05FFE0B4646F6B7
:1022380047710246C0F2000101A801F091FE40F288
:102248005C0001ACC2F2000000212022234601F00C
:1022580023FD95ED050A96ED051A20EE010AB5EE67
:10226800400AF1EE10FA0FD89FED201AB4EE410A99
:10227800F1EE10FA08DD46F62440C0F20000CEC8A0
:10228800CEC4007820700CE010EE100A01F02DFE8C
:102298000B4646F665410246C0F2000101A801F06E
:1022A8005FFE40F25C04C2F2000401AB204600214C
:1022B800282201F0F1FC41F28C00C2F20000007803
:1022C80046F6286146F61753C0F20001C0F2000333
:1022D800002808BF0B4620460021302201F0DCFC14
:1022E800204601F0B3FA0EB0BDE8F0816F1283BA50
:1022F80040F67800C2F2000000214160018143F6F7
:102308007951C0F20001416643F61951C0F200014B
:10231800C0F8C41043F6E141C0F20001C0F89410BF
:1023280043F69551C0F20001416342F25511C0F2E3
:102338000001C16040F27001C2F20001C0F8D01083
:102348007047D4D480B540F27C6046F69021C2F242
:102358000000C0F20001FEF7B5F988BB40F27C60CE
:1023680046F6A821C2F20000C0F20001FEF7ACFA5E
:10237800A8BB40F2506046F64C21C2F20000C0F201
:102388000001FEF79FF9C8BB40F2506046F6642191
:10239800C2F20000C0F20001FEF796FA002808BF5A
:1023A80080BD46F6B74046F6686246F60453C0F26A
:1023B8000000C0F20002C0F200031021FEF776F818
:1023C80046F6B74046F6686246F60453C0F2000087
:1023D800C0F20002C0F200030921FEF767F846F6D2
:1023E800B74046F6686246F60453C0F20000C0F2F1
:1023F8000002C0F200030B21FEF758F846F6B7407A
:1024080046F6686246F60453C0F20000C0F20002C5
:10241800C0F200030E21FEF749F8D4D480B540F28B
:102428007C60C2F20000FEF73BFBB8B940F2506096
:10243800C2F20000FEF734FB002808BF80BD46F654
:10244800B74046F6825246F60453C0F20000C0F286
:102458000002C0F200031821FEF728F846F6B7403C
:1024680046F6825246F60453C0F20000C0F200025B
:10247800C0F200031621FEF719F8D4D4B0B546F619
:102488007C2540F27460C0F20005C2F200002946C3
:10249800FEF758FBE8BB46F6382440F24860C0F225
:1024A8000004C2F200002146FEF74CFB00283FD191
:1024B800296840F64C15C2F20005281D88602020C6
:1024C800C4F21700486040F27460C2F20000FEF7E0
:1024D8009BFBE0BB216840F22220C4F217008D600C
:1024E800486040F24860C2F20000FEF78DFB002809
:1024F80008BFB0BD46F6966046F6716246F60453CC
:10250800C0F20000C0F20002C0F200031921FDF77A
:10251800CDFF46F6966046F6716246F60453C0F261
:102528000000C0F20002C0F200030D21FDF7BEFF5B
:1025380046F6966046F6716246F60453C0F200000D
:10254800C0F20002C0F200030F21FDF7AFFF46F60C
:10255800966046F6716246F60453C0F20000C0F277
:102568000002C0F200031421FDF7A0FF80B540F27D
:102578007460C2F20000FEF78DFBB8B940F2486003
:10258800C2F20000FEF786FB002808BF80BD46F6B1
:10259800966046F6794246F60453C0F20000C0F24F
:1025A8000002C0F200032221FDF780FF46F6966084
:1025B80046F6794246F60453C0F20000C0F2000223
:1025C800C0F200032021FDF771FFD4D480B540F29A
:1025D800A85046F69801C2F20000C0F20001FEF7CA
:1025E80067FB002808BF80BD46F6355046F63E72A8
:1025F80046F60453C0F20000C0F20002C0F2000325
:102608000921FDF753FFD4D480B540F2A850C2F297
:102618000000FEF775FB002808BF80BD46F6355060
:1026280046F6307246F60453C0F20000C0F20002CB
:10263800C0F200031021FDF739FFD4D480B5FEF7AE
:1026480067FB002808BF80BD46F6E36046F60C62CB
:1026580046F60453C0F20000C0F20002C0F20003C4
:102668000921FDF723FFD4D480B5FEF7CFFC00285D
:1026780008BF80BD46F6E36046F69D5246F6045311
:10268800C0F20000C0F20002C0F200031021FDF702
:102698000DFFD4D480B5FEF7BFFC002808BF80BD6D
:1026A80046F6E36046F68D6246F60453C0F2000033
:1026B800C0F20002C0F200031721FDF7F7FED4D4E0
:1026C80080B50022FEF7B4FC002808BF80BD46F69E
:1026D800E36046F67A6246F60453C0F20000C0F2A0
:1026E8000002C0F200031E21FDF7E0FE80B5FEF7F0
:1026F80099FC002808BF80BD46F6E36046F62252E2
:1027080046F60453C0F20000C0F20002C0F2000313
:102718002521FDF7CBFED4D480B5FEF7DBFE0028DB
:1027280008BF80BD46F6A75046F62C5246F604531D
:10273800C0F20000C0F20002C0F200030921FDF758
:10274800B5FED4D480B50723FFF720F8002808BFCA
:1027580080BD46F6A75046F6496246F60453C0F2D5
:102768000000C0F20002C0F200031021FDF79EFE37
:10277800FFF72CFF40F2B855C2F2000546F60411E7
:10278800C0F200012846FFF759FF40F2286046F6DC
:102798001421C2F20000C0F20001FFF74FFF40F21F
:1027A8000864C2F2000446F69411C0F20001204603
:1027B800FFF744FF40F2A066C2F2000646F61C315D
:1027C800C0F200013046FFF739FFFFF7BBFDFFF706
:1027D80055FE40F2D85046F63011C2F20000C0F261
:1027E8000001FFF799FFFFF70FFF2846FFF73CFFAF
:1027F800FFF7BCFE00F0B2FC01F0A4FA41F28C0035
:10280800C2F200004FF0000980F800902046FFF760
:102818002BFF3046FFF728FFFFF700FE40F2C064A9
:1028280040F2C26640F64C159FED2B8A9FED2B9A1D
:1028380040F29C0A40F2700B41F2900740F2C168E6
:10284800C2F20004C2F20006C2F20005C2F2000A97
:10285800C2F2000BC2F20007C2F200081EE000BF7D
:10286800A888E988084400EE100AB8EE400A2888CB
:10287800698820EE080A20EE090A08448AED050A4C
:1028880000EE100AB8EE400A386820EE080A20EE7A
:10289800090A10308BED050A00F094FA207888B107
:1028A80098F8000070B141F28C00C2F20000007884
:1028B80040B184F8009088F800903868D0F8D000CB
:1028C80001F078FA30780028CAD086F80090386885
:1028D800C0688047C4E700BF333353400000003A64
:1028E800022818BF704740F2B05046F6D431C2F201
:1028F8000000C0F20001FEF7E9BCD4D410B582B0E4
:1029080040F25C0047F28811C2F20000C0F20001F8
:1029180001F0DEF940F65810C2F20000006840F6F7
:102928007801C2F2000188422BD040F2D061C2F295
:102938000001884245D040F2A471C2F200018842E9
:1029480060D140F25C04C2F200044FF00F0C204644
:102958004E2108226C23CDF800C001F079F82046FA
:10296800002101F0B7F940F62C23C2F200032046FB
:102978004E21082201F090F920466D2108225723A4
:102988003EE040F25C04C2F200044FF00F0C204617
:102998005A2108227723CDF800C001F059F82046C3
:1029A800002101F097F940F62C23C2F200032046DB
:1029B8005A21082201F070F920467821082256236E
:1029C8001EE040F25C04C2F200044FF00F0C2046F7
:1029D8005A2108227723CDF800C001F039F82046A3
:1029E800002101F077F940F62C23C2F200032046BB
:1029F8005A21082201F050F9204678210822412363
:102A080001F06CF840F25C04C2F200042046012197
:102A180001F060F9204602B0BDE8104000F016BF92
:102A280040F65410C2F200000178042988BF7047AC
:102A380040F62C22C2F200023323535401310170B4
:102A48007047D4D440F65810C2F20000002141600B
:102A5800018142F6FD21C0F20001016142F62131F7
:102A6800C0F20001016442F64531C0F20001C164C0
:102A780042F62921C0F20001816542F66931C0F2AF
:102A88000001016742F68D31C0F20001C16742F6CC
:102A9800B131C0F20001C0F8881042F6D531C0F259
:102AA8000001C0F8A01042F6F931C0F20001C0F8E8
:102AB800AC1042F61D41C0F20001C0F8B81042F651
:102AC8004141C0F20001C16142F67941C0F2000102
:102AD800416642F6AD41C0F20001416342F68D51B4
:102AE800C0F20001816242F60511C0F20001C16026
:102AF8007047D4D440F65410C2F20000017804297B
:102B080088BF704740F62C22C2F20002302353548B
:102B1800013101707047D4D440F65410C2F200005D
:102B28000178042988BF704740F62C22C2F20002BF
:102B380031235354013101707047D4D440F65410F6
:102B4800C2F200000178042988BF704740F62C22A1
:102B5800C2F2000232235354013101707047D4D4B9
:102B680040F65410C2F200000178042988BF70476B
:102B780040F62C22C2F20002342353540131017072
:102B88007047D4D440F65410C2F2000001780429EA
:102B980088BF704740F62C22C2F2000235235354F6
:102BA800013101707047D4D440F65410C2F20000CD
:102BB8000178042988BF704740F62C22C2F200022F
:102BC80036235354013101707047D4D440F6541061
:102BD800C2F200000178042988BF704740F62C2211
:102BE800C2F2000237235354013101707047D4D424
:102BF80040F65410C2F200000178042988BF7047DB
:102C080040F62C22C2F200023823535401310170DD
:102C18007047D4D440F65410C2F200000178042959
:102C280088BF704740F62C22C2F200023923535461
:102C3800013101707047D4D440F65410C2F200003C
:102C480001784A1E022A11D840F24D02C2F200024F
:102C58001378FF2B18BF704740F62C2CC2F2000CDB
:102C68002E230CF801301170013101707047D4D453
:102C780041F29000C2F2000001680968016040F664
:102C88005410C2F200000021017040F62C20C2F25C
:102C980000000160818040F24D00C2F20000FF2177
:102CA8000170704710B582B040F62C240020C2F2A3
:102CB800000446F683410190C0F2000101AA2046B3
:102CC80001F078F99DED010A40F65810B5EE400A7A
:102CD800F1EE10FAC2F2000002D59FED281A26E0A4
:102CE800B3EE0D1A0168B4EE410AF1EE10FA05DDF3
:102CF80040F67802C2F20002914218D0B1EE041AEE
:102D0800B4EE410AF1EE10FA15DD40F2D06240F25D
:102D1800A473C2F20002C2F200038A1AC91AB2FAF4
:102D280082F2B1FA81F152094909114303D0B0EE98
:102D3800410A8DED011A9FED121A20EE010AB8FE24
:102D4800400A80EE010A0068D0F8D01081ED040A2C
:102D580041F29001C2F20001086040F65410C2F23C
:102D680000000021017040F24D002160A180C2F2F4
:102D78000000FF21017002B010BD00BF000000007C
:102D88000000C84240F65410C2F200000178002941
:102D980008BF704710B54A1E40F24D01C2F200014B
:102DA80040F62C2C0C78D3B2C2F2000C4FF0000E77
:102DB8000CF803E0A3420270BDE8104004BFFF20F6
:102DC800087070472DE9F04F87B0019040F2B0507D
:102DD800C2F2000040F20E4100220024FEF794FAED
:102DE80002940298952806DC00BF029801300290F0
:102DF80002989628F8DB47F2887440F2B05500270D
:102E0800C0F20004C2F2000506AE0DF1080800BFCA
:102E180034F8171028463246FEF764FA9DF8180071
:102E2800B0FA80F0400908F807000137042FEFD105
:102E380040F2B055C2F20005284640F20E41012288
:102E4800FEF762FA284640F20C4100220025FEF700
:102E58005BFA06950698952807DC00BF00BF069820
:102E68000130069006989628F8DBA61E40F2B05965
:102E78000427C2F2000906AD344600BF34F8021F29
:102E880048462A46FEF72EFA9DF81800B0FA80F058
:102E9800400908F807000137082FEFD140F2B05475
:102EA800C2F20004204640F20C410122FEF72CFA3F
:102EB800204640F20A4100220024FEF725FA069433
:102EC8000698952807DC00BF00BF069801300690D9
:102ED80006989628F8DB40F2B0590827C2F2000994
:102EE80006AC354635F8021F48462246FEF7FAF981
:102EF8009DF81800B0FA80F0400908F8070001377B
:102F08000C2FEFD140F2B054C2F20004204640F238
:102F18000A410122FEF7F8F920464FF481610022A8
:102F28000024FEF7F1F906940698952807DC00BFFF
:102F380000BF06980130069006989628F8DB40F204
:102F4800B0540C27C2F2000406AD00BF36F8021FC9
:102F580020462A46FEF7C6F99DF81800B0FA80F018
:102F6800400908F807000137102FEFD140F2B050A0
:102F7800C2F200004FF481610122FEF7C5F940F268
:102F8800C86040F6382AC2F20000C2F2000A04788B
:102F9800019F0AF1080600254FF0000B4FF00009C9
:102FA80015E000BF01200AF81B00C6E90045C6E984
:102FB800024557F80B00002818BF80470BF10C0B8F
:102FC80009F10109BBF1C00F06F1180630D0D6E9A6
:102FD8000001201A65EB0101323871F10000EDD3D0
:102FE8001AF81B1018F8090009B90028DAD141B1FC
:102FF80038B90AF81B50C6E9004507EB0B004068D2
:10300800D9E70129DAD10028D8D0D6E90201201A57
:1030180065EB0101B0F5FA6071F10000CED3022032
:103028000AF81B00C6E9004507EB0B008068C2E7F9
:1030380007B0BDE8F08FD4D4B0B582B040F25C04DC
:10304800C2F20004204600F0FBFC47F28071C0F297
:103058000001204600F03CFE40F6B835C2F20005FB
:103068006868002103682046002200F015FE6868A1
:10307800002143682046102200F00EFE68680021F7
:1030880083682046202200F007FE2046022100F037
:1030980021FE687A616802014B1E02F10F05204685
:1030A8000021009500F0D4FC2046012100F012FE1A
:1030B800204602B0BDE8B04000F0C8BB40F6B830CA
:1030C800C2F20000407A022888BF704747F2907128
:1030D800C0F2000151F8200041F29001C2F2000153
:1030E8000860704740F6B830C2F20000027A417AB0
:1030F800013A8A42C4BF01314172704740F6B83084
:10310800C2F20000417A00291CBF013941727047A0
:1031180040F6B83040F25001C2F20000C2F200019D
:1031280041600321018143F2C501C0F200014163FE
:1031380043F20511C0F20001C0F8C41043F2ED01DA
:10314800C0F20001C0F8941043F24101C0F200013E
:10315800C1600021C0F8D0107047D4D470B582B0D7
:1031680040F2B054C2F2000420464FF480710022AD
:10317800FEF7CAF80A204FF47A71FDF79BF920464A
:103188004FF480710122FEF7BFF80A204FF47A71DC
:10319800FDF790F964204FF47A71FDF78BF9AE20B2
:1031A8008DF80700204640F203110022FEF7ACF824
:1031B80040F24C05C2F2000528780028FCD040F205
:1031C800B0540020C2F200042870204640F20511D5
:1031D8000022FEF799F840F2D850C2F200000DF133
:1031E80007010122FFF7AEFAD5208DF80700204627
:1031F80040F203110022FEF787F800BF2878002864
:10320800FCD040F2B0540020C2F2000428702046DE
:1032180040F205110022FEF777F840F2D850C2F2CA
:1032280000000DF107010122FFF78CFA80208DF8CC
:103238000700204640F203110022FEF765F800BFA0
:1032480028780028FCD040F2B0540020C2F20004D4
:103258002870204640F205110022FEF755F840F28A
:10326800D850C2F200000DF107010122FFF76AFAF7
:10327800A8208DF80700204640F203110022FEF72F
:1032880043F800BF28780028FCD040F2B054002052
:10329800C2F200042870204640F205110022FEF711
:1032A80033F840F2D850C2F200000DF107010122B4
:1032B800FFF748FA3F208DF80700204640F2031137
:1032C8000022FEF721F800BF28780028FCD040F241
:1032D800B0540020C2F200042870204640F20511C4
:1032E8000022FEF711F840F2D850C2F200000DF1AA
:1032F80007010122FFF726FAD3208DF807002046A0
:1033080040F203110022FDF7FFFF00BF28780028D4
:10331800FCD040F2B054C2F200040026204640F22D
:10332800051100222E70FDF7EFFF40F2D850C2F2CF
:1033380000000DF107010122FFF704FA204640F2D0
:10334800031100228DF80760FDF7DEFF28780028BA
:10335800FCD040F2B0540020C2F20004287020468D
:1033680040F205110022FDF7CFFF40F2D850C2F21B
:1033780000000DF107010122FFF7E4F940208DF864
:103388000700204640F203110022FDF7BDFF00BFF1
:1033980028780028FCD040F2B0540020C2F2000483
:1033A8002870204640F205110022FDF7ADFF40F2DB
:1033B800D850C2F200000DF107010122FFF7C2F94F
:1033C800A1208DF80700204640F203110022FDF7E6
:1033D8009BFF00BF28780028FCD040F2B0540020A2
:1033E800C2F200042870204640F205110022FDF7C1
:1033F8008BFF40F2D850C2F200000DF10701012204
:10340800FFF7A0F9C8208DF80700204640F2031105
:103418000022FDF779FF00BF28780028FCD040F291
:10342800B0540020C2F200042870204640F2051172
:103438000022FDF769FF40F2D850C2F200000DF1FA
:1034480007010122FFF77EF9DA208DF807002046F0
:1034580040F203110022FDF757FF00BF287800282B
:10346800FCD040F2B0540020C2F20004287020467C
:1034780040F205110022FDF747FF40F2D850C2F292
:1034880000000DF107010122FFF75CF912208DF809
:103498000700204640F203110022FDF735FF00BF68
:1034A80028780028FCD040F2B0540020C2F2000472
:1034B8002870204640F205110022FDF725FF40F252
:1034C800D850C2F200000DF107010122FFF73AF9C6
:1034D80081208DF80700204640F203110022FDF7F5
:1034E80013FF00BF28780028FCD040F2B054002019
:1034F800C2F200042870204640F205110022FDF7B0
:1035080003FF40F2D850C2F200000DF1070101227A
:10351800FFF718F9CF208DF80700204640F2031175
:103528000022FDF7F1FE00BF28780028FCD040F209
:10353800B0540020C2F200042870204640F2051161
:103548000022FDF7E1FE40F2D850C2F200000DF172
:1035580007010122FFF7F6F8D9208DF80700204669
:1035680040F203110022FDF7CFFE00BF28780028A3
:10357800FCD040F2B0540020C2F20004287020466B
:1035880040F205110022FDF7BFFE40F2D850C2F20A
:1035980000000DF107010122FFF7D4F8F1208DF8A2
:1035A8000700204640F203110022FDF7ADFE00BFE0
:1035B80028780028FCD040F2B0540020C2F2000461
:1035C8002870204640F205110022FDF79DFE40F2CA
:1035D800D850C2F200000DF107010122FFF7B2F83E
:1035E800DB208DF80700204640F203110022FDF78A
:1035F8008BFE00BF28780028FCD040F2B054002091
:10360800C2F200042870204640F205110022FDF79E
:103618007BFE40F2D850C2F200000DF107010122F2
:10362800FFF790F840208DF80700204640F203117C
:103638000022FDF769FE00BF28780028FCD040F280
:10364800B0540020C2F200042870204640F2051150
:103658000022FDF759FE40F2D850C2F200000DF1E9
:1036680007010122FFF76EF820208DF80700204699
:1036780040F203110022FDF747FE00BF287800281A
:10368800FCD040F2B054C2F200040026204640F2BA
:10369800051100222E70FDF737FE40F2D850C2F215
:1036A80000000DF107010122FFF74CF8204640F217
:1036B800031100228DF80760FDF726FE2878002800
:1036C800FCD040F2B0540020C2F20004287020461A
:1036D80040F205110022FDF717FE40F2D850C2F261
:1036E80000000DF107010122FFF72CF88D208DF85D
:1036F8000700204640F203110022FDF705FE00BF37
:1037080028780028FCD040F2B0540020C2F200040F
:103718002870204640F205110022FDF7F5FD40F221
:10372800D850C2F200000DF107010122FFF70AF894
:1037380014208DF80700204640F203110022FDF7FF
:10374800E3FD00BF28780028FCD040F2B0540020E8
:10375800C2F200042870204640F205110022FDF74D
:10376800D3FD40F2D850C2F200000DF1070101224A
:10377800FEF7E8FFA4208DF80700204640F2031169
:103788000022FDF7C1FD00BF28780028FCD040F2D8
:10379800B0540020C2F200042870204640F20511FF
:1037A8000022FDF7B1FD40F2D850C2F200000DF141
:1037B80007010122FEF7C6FFA6208DF80700204664
:1037C80040F203110022FDF79FFD00BF2878002872
:1037D800FCD040F2B0540020C2F200042870204609
:1037E80040F205110022FDF78FFD40F2D850C2F2D9
:1037F80000000DF107010122FEF7A4FFAF208DF8AC
:103808000700204640F203110022FDF77DFD00BFAE
:1038180028780028FCD00020287040F2B050C2F26E
:10382800000040F205110022FDF76EFD40F2D8506D
:10383800C2F200000DF107010122FEF783FF6420A8
:103848004FF47A71FCF736FE02B070BD2DE9F043F3
:1038580083B00446D0E9018921208DF8060040F2A2
:10386800B050C2F2000040F203110022FDF74CFDF7
:1038780040F24C06C2F2000630780028FCD040F234
:10388800B055C2F200050027284640F20511002273
:103898003770FDF739FD40F2D850C2F200000DF143
:1038A80006010122FEF74EFF284640F203110022CE
:1038B8008DF80770FDF728FD30780028FCD040F21D
:1038C800B0550020C2F200053070284640F20511BC
:1038D8000022FDF719FD40F2D850C2F200000DF1A8
:1038E80007010122FEF72EFF7F208DF808002846E9
:1038F80040F203110022FDF707FD00BF30780028D1
:10390800FCD040F2B0550020C2F2000530702846C5
:1039180040F205110022FDF7F7FC40F2D850C2F240
:10392800000002A90122FEF70DFF22208DF80900F0
:10393800284640F203110022FDF7E6FC3078002803
:10394800FCD040F2B055C2F200050027284640F2EC
:10395800051100223770FDF7D7FC40F2D850C2F2AB
:1039680000000DF109010122FEF7ECFE284640F2A5
:10397800031100228DF80A70FDF7C6FC3078002884
:10398800FCD040F2B0550020C2F200053070284645
:1039980040F205110022FDF7B7FC40F2D850C2F200
:1039A80000000DF10A010122FEF7CCFE07208DF878
:1039B8000B00284640F203110022FDF7A5FC00BFCA
:1039C80030780028FCD040F2B0550020C2F2000543
:1039D8003070284640F205110022FDF795FC40F2B0
:1039E800D850C2F200000DF10B010122FEF7AAFE29
:1039F8000A200121FCF75EFD2468284640F20311E5
:103A08000122FDF781FC00BF30780028FCD000209F
:103A1800307040F2B050C2F2000040F205110022AE
:103A280009FB08F5FDF770FC40F2D850C2F200001F
:103A380021462A46FEF786FE03B0BDE8F083D4D4BB
:103A480080B507C802FB01F100F057FA80BDD4D455
:103A58009942C8BF70472DE9F04FDDF824C04FF0F8
:103A6800FF380CF1010E4FF0010903E0994201F112
:103A780001012FD06245F9DC16460AE008FA07F57D
:103A8800013D05EA0A0504F80B5000BF0136B645AA
:103A9800ECD0002958BF002EF8D44468A142F5DACA
:103AA8008568B6EBC50FF1DA07684FEAD60A057BD9
:103AB80004FB0AFB7C1814F80BA0002D06F007077E
:103AC800DCD0012D09FA07F514BF85EA0A0545EA95
:103AD8000A05D8E7BDE8F04F7047D4D42DE9F04F78
:103AE80082B0066990F80CC0377875780737FF08F8
:103AF80007FB05F5002D00F0C980203B0093CCF1B1
:103B080001034FF0000E4FF0010A01930CE000BFD3
:103B180006690EF1010E337874780733DB0803FB6E
:103B280004F5AE4580F0B2807368009C002605FB62
:103B3800043313F90E8013460DE04FF0FF3404FAF6
:103B48000BF4013C04EA09047C5500BF0136082E39
:103B580003F10103DCD00AFA06F4BCF1010F04EA10
:103B6800080427D8002C06EB020554D0046980F815
:103B78000CC06478E7B2BEFBF7F404FB17E77F18C4
:103B8800E4D405EBC404002CE0D4D0F804904F45ED
:103B9800DCDA8568B4EBC50FD8DAE508046809FBF8
:103BA80005F5274417F80590BCF1010F03F0070B42
:103BB800C3D15AE0002CC9D004696478E5B2BEFBD1
:103BC800F5F404FB15E56D18C0D4B71807EBC40766
:103BD800002FBBD4D0F804B05D45B7DA8468B7EBE2
:103BE800C40FB3DAFC08076890F80C900BFB04FBD1
:103BF8003D4415F80BA0B9F1000F03F0070439D0C4
:103C0800012707FA04F4B9F1010F14BF84EA0A0482
:103C180044EA0A0435E004696478E7B2BEFBF7F4C5
:103C280004FB17E717EB010B019F07733FF58EAFF6
:103C380005EBC404002C3FF589AFD0F80490CB45C0
:103C4800BFF684AF8568B4EBC50FBFF67FAFE50854
:103C5800046809FB05F504EB0B0717F80590BCF1A0
:103C6800000F03F0070B7FF468AF0AFA0BF444EA7D
:103C7800090469E74FF0FF3707FA04F4013C04EA46
:103C88000A044FF0010A05F80B405FE780F80CC002
:103C980002B0BDE8F08FD4D42DE9F04190461A78EF
:103CA800002A08BFBDE8F0810D4606465F1C0024C7
:103CB800306953B24078424604FB00513046FFF762
:103CC8000DFF3A5D0134002AF2D1BDE8F081D4D469
:103CD8000161704701737047B0B541F28C0040F242
:103CE8002864C2F200000025C2F2000405702046D4
:103CF800FEF7D0FC20460021FEF7E2FC41F29000DE
:103D0800C2F200000068D0F8D000C0E90655B0BD86
:103D180010B541F28C0040F22864C2F20000012183
:103D2800C2F2000401702046FEF79EFC2046FEF712
:103D3800DDFC40F2A060C2F20000BDE81040FEF7D2
:103D4800D5BCD4D480B5FFF7E3F9FEF7D1FAFEF776
:103D5800EFF8FEF7D1F9FEF775FE41F2900040F654
:103D6800B831C2F20000C2F20001016080BDD4D4B3
:103D780080B5FFF7B1FF41F2900040F6B831C2F2CA
:103D88000000C2F20001016080BDD4D441F28C0071
:103D9800C2F200000078002818BF704741F2900076
:103DA800C2F20000016840F65812C2F20002116027
:103DB8000260704710B5044694ED040A94ED052A94
:103DC80094ED0A1A30EE420AC069B4EE410AF1EEE7
:103DD80010FA206284ED070A07DCB1EE411AB4EE4E
:103DE800410AF1EE10FA58BF10BD94ED062A94ED81
:103DF800001A94ED013AA08930EE022A84ED062AD1
:103E080022EE032A21EE000A01EE100A30EE020A21
:103E1800B8EE411AB4EE410AF1EE10FA84ED090A3F
:103E280009DCE08901EE100AB8EE411AB4EE410A45
:103E3800F1EE10FA05D50020B0EE410A84ED091A1A
:103E4800A061BCEEC00A40F2286010EE101AC2F25F
:103E580000000022FDF7ECF894ED090A41F2940005
:103E6800BCEEC00AC2F2000080ED000A10BD10EEE0
:103E7800100A0246C0F3C7516FF3DF5239B1FF2968
:103E88001ED14FEAD20C520740F2FF7324E0FAB178
:103E9800B2FA82F1C1F10B03B1F10B0C22FA03F370
:103EA80058BF02FA0CF383F4801C40F28933A3EB69
:103EB800010301F1150102FA01F258BF00220BE0DB
:103EC800C30D4FEAD20CDBB2520703F5607303E06F
:103ED80000224FF0000C002300F0004040EA03509D
:103EE80040EA0C0040EC102B704780B500EE100A39
:103EF800FFF7BDFF51EC100B80BD0A46002100F012
:103F080009B810B500239A4203D0CC5CC4540133DD
:103F1800F9E710BD00239A4208BF7047C154013326
:103F2800F9E7D4D410B505490446054AFFF7E9FF77
:103F3800044805492044FFF7E0FF10BD34010000A4
:103F48000000000000000000000000000249401AC4
:103F580002490860704700BF080000009810002060
:103F680082B0B0B58AB000250446CDE905050C48F5
:103F780002904FF40030CDE90E23CDE903550190AE
:103F8800CDE907550EAA099201A800F03BF80028D0
:103F980000D425540AB0BDE8B04002B0704700BF55
:103FA800AD3F0000D1E904239A421EBF531C0B61A8
:103FB8001070704782B080B58AB0CDE90C2300221A
:103FC800CDE9042009480692CDE90722CDE902206F
:103FD8004FF4803001900CAA099201A800F03CFF30
:103FE8000AB0BDE8804002B0704700BFF93F00004A
:103FF80002690146107810B101320A6170476FF00A
:10400800010070472DE9F04F95B0824680781492F0
:10401800800740F18B84DAF8040000270C9014988C
:1040280013900DA8821D0692421E05300892099031
:1040380007910B910B9A114611F8010B252803D013
:10404800002800F0758404E05578961C252D09D1C8
:1040580031460C9A0B915146904701370028E9D513
:1040680000F05EBC00224FF0000800244FF0000B67
:104078001FFA8BF9B9F11F0F0DD8A5F127000928F0
:104088002DD8DFE800F09F0B0B0B050B650B0B62BF
:104098004BF0020B53E0B9F17F0F12D8A5F13000B5
:1040A800092823D8B9F1400F27BF08EB880100EB96
:1040B800410804EB840100EB410438BF4BF0200BAE
:1040C80080E04C2D3ED0682D45D06A2D3AD07A2D0F
:1040D80018BF742D76D06C2D40F0538242E0202D0D
:1040E8002DD0232DDAD14BF0100B6BE0242D47D0C7
:1040F8007A2D67D02E2D3CD04C2D23D0682D2AD078
:104108006A2D1FD06C2D2DD0742D5BD02A2D40F038
:104118003882002A56D11398011D13910068B9F10D
:104128003F0F4DD8B0F1FF3FDDBF4BF0280B4442A5
:1041380000224BF0200BC4BF0022044642E04BF0A3
:10414800040B3FE04BF4207B3CE04BF0010B39E0E3
:104158004BF0080B36E00BF480704BEA400040F45B
:10416800807B2FE00BF080004BEA800040F0800B52
:1041780028E0B9F13F0F00F2DB834BF0400B21E060
:10418800BAB11498154642461390B9F1400F38BF9A
:104198002246079813A900F0D5FB13982A46B9F1CF
:1041A800400F00F104011391006834BF04468046B3
:1041B80008E022464FF0000800244FF0000B01E011
:1041C8000022804616F8015B002D7FF451AF0A9457
:1041D800002534462AB114981390079813A900F0C3
:1041E800B1FB45F0200028EAE879B8F1000FA0F10A
:1041F800650148BF2BF0400B03290B9401D36128BC
:1042080035D11399461B073121F00701612801F1C7
:104218000802139291ED000B18D15FEA4B6058BF6A
:104228004FF0FF39F2B20DA8494600F073FC00F1D7
:1042380001084BF4C05B4FF0010C5FFA88F0814530
:10424800D8BFA0F101097020049041E05FEA4B61FA
:1042580058BF4FF00609C1B266291ED0652824D17F
:1042680065204BF4805B09F10101002324E0A5F1EE
:104278006F01062957D808234FF0000EDFE811F028
:10428800E0010700DA01DA019F01DA0197014BF03A
:10429800100B10234FF0780ED2E166204BF4005B30
:1042A8000122049011214B4608E05FEA0961494662
:1042B80008BF01210023023804900022C9B2112945
:1042C80028BF11210DA801F08FFD80464FF0020C88
:1042D8000D9B13F1090F08DA13F1630F0FD213F5D1
:1042E8007A7F09D84FF0040C0BE0092B09DD632B0A
:1042F80005D9B3F57A7FF5D24FF0030C01E04FF002
:10430800020C9DF838101FFA8BF4C80707D15FEA32
:104318008B7206D462071DD4002001251CE02D20D5
:1043280019E02B2017E0692D18BF642D40F02B8170
:104338001FFA8BF05FEA0B6100F1308113990A1DB7
:1043480013920A68C10540F13081800554BF12B24A
:1043580052B22AE12020002511F00C0F18D00423B6
:10436800002D18BF03230A9A9A4226DD5FEA0B71D3
:1043780025D49C1AA846054600F0B9FB002800F190
:10438800CF8201370134F7D328460024454617E089
:104398001BF4405F039543D1B9F1010F98BF4FF06B
:1043A80001095FFA88F139B3099A0A4412F8012C15
:1043B800302A21D1A8F10108F3E7002400E0D41A3B
:1043C8002DB900F0A4FB002800F1AA8201379DF85E
:1043D8003800DFF86C550007DFF8600558BF054660
:1043E8002878002800F08F82801B00F08CFB0137B2
:1043F80001350028F4D593E2E20648BF494613F197
:10440800040F0BDB4B4509DA8B424BF4005BAEBF64
:104418004FF00009DA4301EB020901E0A1F10109BB
:104428001FFA8BF15FEA8B42B6464FEA015B0591B2
:10443800029307D40521BBF1000F58BF032101EBFC
:104448000C0602E023EAE3714E1C09F10101B9F1FF
:10445800000F059D08BFC5F30011039A0A9C82F05E
:1044680001028B183344E41A4FF00003D8BF1C46EE
:1044780015F0090FCDF804C011D184B1054688198B
:104488000A9910447646441A00F031FB002800F1DE
:10449800478201370134F7D30024284600E07646E6
:1044A800039929B900F033FB002800F1398201375C
:1044B800BBF1000F0CD500F022FB002800F1308280
:1044C800C6F1780000F01FFB002800F129820237AE
:1044D8000598000709D444B1274400F010FB0028D0
:1044E80000F11E82013CF8D100240598800426D4EE
:1044F8009DF8390051460C9A9047002800F1108227
:10450800B9F1010FC0F2DA8000F0F5FA002800F1E5
:10451800078209EB07005FFA88F500F1020B00201B
:10452800814500F0A681471CAF423ABF0699085C56
:10453800302000F0ECFA00283846F1D5F0E1029876
:10454800C9F100095FFA88F820EAE076851B701C3B
:1045580005D100F0D0FA002800F1E28101373020BF
:10456800002D03D44545BCBF0998405D51464E45D2
:104578004CDD0C9A904701350137013E0028E6D5FD
:10458800CEE10A9425E6632D54D113980126011D26
:10459800139100688DF834000DAD22E08005139862
:1045A80000F1A480011D13910268D317A6E04FF60D
:1045B800EF700BEA000B0A234FF0750E40E01398DA
:1045C800011D13910568DC48002D08BF05465FEA08
:1045D8004B6058BF4FF0FF392846494600F040FB72
:1045E80006465FEA0B7070D40A98B046B04238BFEE
:1045F8008046B0426BD90C9A044620205146904719
:10460800002800F18D81601E0137F2E70C9A90476F
:10461800002800F18581781C0599C90640F11481AC
:10462800002E40F0118100F066FA002800F1788130
:10463800023768E1782840F00981C5F18803AE4661
:104648004FF6F9700BEA00055FEA0B600AD413987D
:10465800011D13910068E9050AD5A90554BF80B268
:10466800C0B205E0A805139804D4011D1391006891
:10467800002107E0073020F007010A46496852F890
:10468800080B139250EA010208BF2BF0160508D058
:104698000DAE7446324600F0FFF9861BAC4625463F
:1046A80046E05FEA4B62F3D5B8F1010FF0DA4FF656
:1046B800E9700BEA000C0026754639E00598C0063B
:1046C80000F1D18007F1010BD3E0DDF828803744F1
:1046D800A8EB0604002E00F0168115F8010B5146D0
:1046E8000C9A9047013E0028F4D519E1073020F0D4
:1046F80007000146436851F8082B13915846002BD0
:1047080048BF40F4806020F0100C82EAE37083EA2E
:10471800E371B0EBE37061EBE3711A4300F08A8058
:104728000DAC0A236646224600F0B6F9B446061BCD
:104738005FEA4C6002D4614630460BE04FF6FE70EB
:104748000CEA000130464E4504DA4846002D08BF01
:104758002CF011011FFA81FBC90606D440F206416C
:1047680011EA0B0118BF012103E00221002D08BF47
:1047780001210C185FEA0B701CD45FEACB7001D1E1
:104788000A9907E00A99B1468C42BEBF7018A0EB9F
:1047980004090C46A046A142C8BF88460A9884422C
:1047A80007DA00F0A4F9002800F1BA8001340137D3
:1047B800F4E744465FEACB6014D440F206401BEAB3
:1047C800000F1FD05FEA8B704FF02B0058BF2020DE
:1047D8005FEA4B5148BF2D2000F099F9002800F1FD
:1047E8009F800EE000F08BF9002800F1998045B118
:1047F8000C9A284651469047002800F191800237CC
:1048080000E001370A983744041BB1450FDD00F07A
:1048180076F90137A9F101090028F6D580E0089852
:1048280051460C9A805D9047013E002878D4002EAE
:1048380069D0F4E75FEA4B627FF572AFB8F1010F18
:10484800BFF66EAF002673E707465CE00C9A25209A
:1048580051469047002863D40C9A28465146904701
:104868000237FFF7FBBB00F046F9002858D407F1E0
:10487800020B049851460C9A801BC0B2904700283E
:104888004ED4029E2B205146002E48BF2D200C9A54
:104898009047002E00D57642002841D4019804287C
:1048A80012D34FF47A700C9AB6FBF0F5514605F125
:1048B8003000C0B29047002832D44FF47A7005FB1C
:1048C80010610BF1030504E00BF1020531460328E2
:1048D80023D1642000F002F9002821D46420013596
:1048E80006FB10710A2000F0F9F8002818D406EB2E
:1048F80086000135A7EB400101F1300000F003F913
:1049080000280DD46F1C012CFFF694AB00F0EFF8D3
:104918000137013C0028F6D502E00228E2D2EBE795
:104928009AF8020040F004008AF802004FF0FF37BE
:10493800384615B0BDE8F08F596F0000F46D0000DF
:104948003A6F00002DE9F043894652494FF00108BB
:104958004FF0010C0546944580F299802B4613F8D8
:10496800014B252C03D01D46002CF7D18FE0AF1C3E
:104978006B783D46252BF1D000264FF0000E002520
:104988001F2E08D8A3F12004102C06D808FA04F426
:104998000C4202D042E07F2E0AD8A3F13004092C41
:1049A80013D805EB850346F0200604EB430535E0F4
:1049B8004C2B23D0682B24D06A2B1FD07A2B18BFFE
:1049C800742B2BD06C2B34D122E07A2B26D02A2BB7
:1049D80018BF2E2B01D1002520E04C2B0ED0682BC0
:1049E8000FD06A2B0AD06C2B12D0742B16D0242B24
:1049F8001FD1BEF1000F16D1AE46ECE746F4207683
:104A08000CE006F4807346EA430343F4807605E03D
:104A180006F0800346EA830343F0800617F8013B5B
:104A2800002BADD104E06545D5D16323E64600E00F
:104A380000233D46BEF1000F29D0E6457FF48BAF39
:104A480043F02004A4F16505032D01D3612C06D1A0
:104A5800D9F80030073323F00703083312E0DCB23B
:104A6800732C0CD0642B18BF692B06D1330606D5DE
:104A7800D9F80030B405EDD403E0632BF6D1D9F8AA
:104A880000300433C9F800300CF1010C62E7BDE8CE
:104A9800F08300BF892801002DE9F04103F01F06CB
:104AA800984614460F46054628463946324600239E
:104AB80000F0E2F800FB1652A2EB0803092A88BFAF
:104AC80003F13702303204F8012BAA1B054677F1AF
:104AD80000020F46E8D22046BDE8F0810C9AB1FBEF
:104AE800F0F60F4606F130005146C0B210470C9A56
:104AF8002020514610470C9A2E20514610470C9AF8
:104B08003020514610470C9AC0B2514610470C9AB3
:104B1800514610472DE9FE4F56EC107B0C460546D2
:104B2800F00F90462871C6F30A516FF31F5657EAE3
:104B3800060208BF00290ED089B140F2FF739942DE
:104B48000FD10821002A08BF042100240844287135
:104B58002046BDE8FE8F00200027002605E02E48ED
:104B680003E0A1F2FF3006F58016002C286003D47C
:104B78000C2C03D90D2436E0002434E03320A0EBBC
:104B88008409022000214A464FF0000A00F046F846
:104B9800424202926AEB0102B0F1010B61F100009E
:104BA800019230400090012000214A4600F036F87A
:104BB800814607EA0B00B9EB00008A46009871EBC2
:104BC800000008D3A000C0F134023846314600F096
:104BD80036F8C00703D017EB090746EB0A06029818
:104BE8000740019806401220411FB1D417F00F0268
:104BF80001D1A1420ADCA2EB0803092A88BF03F10C
:104C0800270230322A54A142C8BF0C46390941EA6A
:104C1800067736090138E7E702FCFFFF930641BF34
:104C2800A2F1200100FA01F10020704732B1C2F16F
:104C38002003914020FA03F31943904070479306EC
:104C480041BFA2F1200021FA00F00021704732B1E3
:104C5800C2F12003D04001FA03F31843D140704752
:104C680010B54218034629B11C7814B10139013333
:104C7800F9E71A46101A10BD40B584B002AE009686
:104C880000F004F8029A039B04B040BD2DE9F047F8
:104C9800DDF820E0844681B1CAB153B3B1FA81F49A
:104CA800B3FA83F52C1B202C47D3BEF1000F18BF95
:104CB800CEE900C14FF0000CB6E09BB30021BEF175
:104CC800000F18BFCEE900C14FF0000CADE0002B7B
:104CD80078D0002877D05C1E234200F09880B1FA83
:104CE80081F4B3FA83F52C1B1F2CDED204F1010CDE
:104CF8002EE0541E224271D0B1FA81F7B2FA82F640
:104D0800F71B07F1210CBCF1200F1BD0BCF11F0FC2
:104D180000F28E80CCF1200620FA0CF401FA06F598
:104D280025431CE0B0FBF2FCBEF1000F1EBF0CFBDC
:104D380012000021CEE9000176E004F1010CBCF17B
:104D4800200F05D14FF0000A4FF0200C0D4609E066
:104D5800C4F11F0620FA0CF501FA06F4254321FADE
:104D68000CFAB0404FF000084FF000094FEA4A042F
:104D780044EAD5776C0044EAD076B51A67EB030AA3
:104D8800F443F943A4184FEA400059415CBFBA46BE
:104D9800354640EAD87049EA4808CF0FBCF1010C03
:104DA800B946E3D14FEAD871BEF1000F41EA40019C
:104DB8004FEA480020F0010018BFCEE9005A07EB7F
:104DC800000C32E031E0B1FBF3FCBEF1000F1EBF76
:104DD8000CFB13100021CEE9001025E0BEF1000FF6
:104DE8001EBF00230440CEE90043012A1DD092FAD9
:104DF800A2F24F00B2FA82F202F01F03D140D8406B
:104E08001F23934307FA03F343EA000C0DE0BEF1B6
:104E1800000F1CBF04EA0100CEE900C093FAA3F01A
:104E2800B0FA80F021FA00FC00216046BDE8F08766
:104E3800CCF14006ACF120044FF0000A01FA06F765
:104E480020FA04F52F4300FA06F821FA04F538464B
:104E58008AE7D4D4D4D4D4D42DE9F84F2DED088BD7
:104E680092B09FEDBD9B81469FEDBDAB00209FEDAD
:104E7800BEBB0F4647F6FD780025CDE910220F90FE
:104E88000A903C4614F8016B002E00F0DC84DFF831
:104E9800C809304490F88000000700F1A880252E4A
:104EA80040F03A8178782A2805D00237252800F082
:104EB8003281002102E0B87803370121013741F03F
:104EC80002024FF0000AA0F13003DBB2092B09D827
:104ED8000AEB8A00791C03EB400A17F8010C0F460D
:104EE8001146F0E78A0711D5C2B2242A10D11198C9
:104EF800012210900430524503DA10900132043038
:104F0800F9E701EA080117F8010CD7E74FF0FF3A73
:104F18007A1EC3B241F00C0B4C2B22D0682B16D052
:104F28006A2B08D06C2B0AD0742B18BF7A2B1AD195
:104F380010788B4619E0107841F0080B15E01078CE
:104F48006C280CBF17F8010B41F0040B0DE010782A
:104F5800682812BF41F0200B17F8010B41F0300B05
:104F680003E0107801E08B461746010600F06B84D9
:104F7800C4B2DFF8E8081422214600F0C1FC00287A
:104F880000F061841BF0010604D11098011D1091F6
:104F9800006800E000201FFA8BF16E2C05D12A462C
:104FA8000023009100F08FFC6BE75B2C0B9023D063
:104FB800632C78D1880758BF4FF0010A0FA900F079
:104FC80098FC002800F134840B9A4AB15FEA4B71CF
:104FD80059BF107001201060042002440B9201E0B8
:104FE80000200B90BAF1010AE8D10A9950E10FA903
:104FF800484600F03DFC99E0CDF82490B94619F8F0
:10500800010B07965E28069018BFB9460020089045
:1050180009980FA900F046FC00224C460021A51C67
:105028000026274617F8013B002B00F0FC834C456F
:105038000AD02D2B06D1F4074FF001063C46F1D0DB
:105048002C4605E05D2B0DD0F50708BF1A46013444
:10505800D2B290421A46E2DB1A469842DFD80121C2
:105068001A46DCE7002800F11482069A5E3AB2FA82
:1050780082F252095140C90700F007820B9A4AB1DF
:105088005FEA4B7159BF1070012010600420024480
:105098000B9201E000200B90BAF1010A4FF00100D9
:1050A8000890B5D1F9E10FA9484600F0E1FB0028C6
:1050B80000F1BE83A4F16F00092839D8DFE800F0B9
:1050C8000545EEEE0BEE58EEEE45CDF824904FF088
:1050D8000809082451E00FA900F00BFC002800F192
:1050E800CA81DFF874170B9A014491F880100907F8
:1050F80000F1BD814AB15FEA4B7159BF10700120C0
:105108001060042002440B9201E000200B90BAF1D9
:10511800010AE0D1AFE13C460FA900F0EAFB002804
:1051280000F18683C1B28E4240F089832746B3E0FE
:10513800582C0AD0642C1BD0692C40F0AF80CDF8D5
:10514800249000244FF00A0917E0CDF824904FF07E
:105158001009102411E000BF000000000000F87FD3
:10516800000000000000F07F0000000000000000C8
:10517800CDF824904FF00A090A2409980FA900F0E5
:1051880091FB2B2803D02D280CD14BF0400BBAF102
:10519800010A00F0488309980FA900F083FB002852
:1051A80000F141833028079628D1BAF101054CD087
:1051B800A146099C0FAE2046314600F073FB00283B
:1051C80043D4DB494BF0800B0140582940F024813F
:1051D800B9F1100F06D0B9F1080F00F02181B9F12B
:1051E800000F0CD1BAF102052FD02046314600F04D
:1051F80059FB002829D44FF0100900E055464FF01C
:10520800000A00264BF080010891411E024641F039
:105218002001392888BFA1F12602A2F130044C45AB
:1052280017D206FB09F6013DEAFB094619D0099891
:105238000FA900F037FBDDF820B0A246B0F1FF3F20
:10524800E3DCDDF820B0A24607E04FF0000A0026B4
:105258000AE009990FAA00F02FFB5FEA0B6003D45C
:10526800E1E2DDF820B0A2461FFA8BF0DAF1000285
:1052780000904FF0000060EB06031BF0400F04BFE6
:10528800524633460B9800F01EFBDDE90991079E54
:1052980086F0010001440A910F9DF2E50FA900F084
:1052A80028FB2B28CDF82490079604D086462D2875
:1052B8000FD14BF0400BBAF1010A00F0B482099803
:1052C8000FA900F0EFFA002800F1AD82DDF8249074
:1052D80086464EF02000692800F0A580B0EE498A85
:1052E800DFF87C65F0EE698A6E2800F0A280002065
:1052F800002506900A20089000200026002405902A
:105308005FEA0B5009D54EF0200000F19F0101F033
:10531800FE01062901D2A92101E0D02170460144ED
:105328000898CAB2C0B2824223D24BF08003A44686
:10533800DC053AD49CB2049614F00C0F4FF010041C
:105348004FF00F0608BF082408BF07260A2808BF21
:105358002646059CB4422BDD049E4BF4C07B644674
:105368000A2857D1052A55D3053A18BF0A460226F6
:1053780022E01FFA8BF0810504D4FE2A02D14BF4F7
:10538800007B3AE02EF02001582940F0D580000635
:1053980040F1D2800698284340F0CE804BF4006B51
:1053A800002006901020089026E09B460A4602E05E
:1053B8009B460A46049E64461FFA8BF15FEACB536C
:1053C8000FD48905454304EBE174D1B2069AE2FB98
:1053D800001551EA05000DD005980130CDE9050109
:1053E8000BE0100618BF46F00106012020EA512004
:1053F800044402E0002006900025BAF1010A00F0FA
:1054080099800FA900F075FA8646B0F1FF3F3FF783
:1054180077AF91E00A46CFE719F0170F7FF4EFAEA8
:105428004FF00809EBE6B0EE4A8ADFF83864F0EE90
:105438006A8A06EB0A09AAF10101354615F8014BFB
:105448008A46C4B3BAF1000F38D009980FA900F002
:1054580029FA002834D4AAF1010140F020022E468E
:10546800A242EBD009990FAA00F026FA29E00FAA68
:10547800494600F021FA0B9900293FF4B6AD5FEADE
:105488004B7015D400200870AFE509990FAA00F0F9
:1054980013FA0898C00700F0C6810B99671C002909
:1054A8003FF4F3AEDDF824905FEA4B70079EE9D530
:1054B8000020086099E50AF1010A08E04D4600E07D
:1054C800751CDFF8A0030330854240F0AC81B0EED4
:1054D800480AF0EE680A01F047F928B3DDF824908D
:1054E800BAF1010F079E00F065810FAC48462146CE
:1054F80000F0D8F928285BD1AAF10204002C00F0AA
:105508009281DDF824900FA900F0F3F9292800F022
:105518005181D149014491F88010490702D15F288F
:1055280040F08181013CE9E7DDF82490079E41E1E4
:10553800DFFFFF7F4FF0000A5FEA0B6040F17381E5
:105548001FFA8BF04EF0200110F4006004964FEA29
:10555800902004FA00F44FF0700008BF65208142E3
:105568001DD1DDF82490079E0894BAF1010422D0D9
:10557800CDE902E50FA900F0BCF986462B2804D036
:10558800BEF12D0F1BD14BF4806BBAF1020450D041
:105598000FA94846754600F085F9864611E0DDF802
:1055A8002490079EBAF1000FDDF818A045D149E014
:1055B80000F0A2F9FEE0DDF818A0089C42E04FF0E8
:1055C800FF35A548DDF818A0704490F88000400722
:1055D8000BD40FAC704600F08FF9691C02D0284636
:1055E80000F08AF9DDE902E526E0601E0024824623
:1055F80004EB840040F2D4418C420EEB4000B8BF6B
:10560800A0F13004BAF1000F0BD00FA900F071F926
:1056180086469148704490F880004007AAF101003E
:10562800E5D45FEA4B5048BF64420898039D0444A0
:10563800B8E7039DDDF818A0089C0FAA70464946F4
:1056480000F03AF95AEA050023D01FFA8BF35FEA13
:105658000B5023D40598049922180AF00100084336
:1056680001301AEB900045F1000113F00C0F0B9B71
:1056780069D012F5A27F69DDB2F59B7F80F2C38005
:10568800224600F021FAB0EE408A0B9BF0EE608AC9
:1056980091E0B0EE4B8AF0EE6B8A8BE035200693F2
:1056A80013F00C0F08BF182005900130044408902F
:1056B800089A50462946FFF7C2FA084306D16800FF
:1056C80040EADA754FEA4A0A013CF1E706982946AA
:1056D800654E10F00C0F08BF6FF07D060598089610
:1056E80040F00206504632460D46FFF7A8FA084336
:1056F80002D10898844209DA5FEA55010AF00102EA
:105708004FEA3A0040EA020A0134EBE7049840EA1B
:105718000A00C1438A0718BF11F0060F1BD1011DEB
:105728006FF0030345F10002C01A079E4F4875EB5E
:10573800000005D35FEA52034FEA310001340CE060
:105748000846134609E012F12D0F5ADAB0EE4B8ADB
:10575800F0EE6B8A2FE0079E2B460599800840EAF9
:105768008370C1F135029908FFF758FA069A12F0CA
:105778000C0F05D00BE04900013C41EAD071400014
:105788000022B2EB115F02D114F57F7FF3DAB4F592
:10579800806F04DBB0EE4A8AF0EE6A8A0AE004F20F
:1057A800FF3221F48013B1F5801F28BF43EA02516C
:1057B80041EC180B0B9B8DED0C8B52EC181B9DF8D4
:1057C80037001BF0400F80F080008DF837000C98F0
:1057D80008BF08460D9908BF1146002B3FF405ACD9
:1057E80041EC100B1FFA8BF212F00C0F03D083ED73
:1057F800000BFFF7FABB1C4600F020F92060FFF70A
:10580800F4BB272A04DDB0EE4A8AF0EE6A8AD2E7B2
:10581800214600F055FA10EE100AFEF766FB0B9BC6
:1058280041EC180BC7E70998807810F00C0F0AD0E4
:105838000A98C0B2002808BF4FF0FF3005E00FAA51
:10584800494600F039F80A98C0B212B0BDEC088B8E
:1058580001B0BDE8F08F00BFA7770000F86D000029
:105868009C7700009F77000002FCFFFFFFFF7F008E
:10587800F8B50B4F0C4605462846214600F012F8AD
:105888000646002809D4B81990F880000007F3D418
:1058980030462946224600F00FF83046F8BD00BFD2
:1058A800A777000010B50C4600F0D0F8002802D405
:1058B80021680131216010BD002802D41368013B22
:1058C800136000F0E8B888B110B50299CC0607D487
:1058D8000C0707D44B0701D4890608D4026003E0FB
:1058E800027001E0C0E90023BDE810407047028063
:1058F800FAE74846FFF7D6BF49462246FFF7DCBF1E
:10590800C9B22AB103788B4203D0013A0130F8E7D3
:1059180000207047B0B554EC102B2146C4F30A534D
:105928006FF31F51A3F28130FD2809D8500F40EAC8
:10593800C10122F06040B0F1805F16D9013118E052
:1059480052EA01000AD040F2FF70834206D1500F9C
:10595800FF2240EAC10040F4800116E040F27E4098
:1059680083421AD9FF2200210FE004BF01F0010091
:1059780001440020B0EBD15F4FF6804018BF0021F2
:10598800CFF6FF7018BF0130C21804F0004040EA9B
:10599800C250084300EE100AB0BD40F2813E002B11
:1059A80018BF01F5801108BF4FF4607EAEEB030C01
:1059B800BCF1340F02DD00210022E6E79E4501D14B
:1059C800002315E0CCF14005DCF12000C5F12003EF
:1059D80001FA05FE22FA03F343EA0E0358BF02FA5E
:1059E80000F302FA05F058BF0020034318BF012353
:1059F80022FA0CF0CCF1200201FA02F21043BCF1B9
:105A0800200258BF21FA02F021FA0CF14FEA507235
:105A180058BF002120F0604042EAC1011843B0F1AC
:105A2800805F01D9013103E004BF01F001000144A6
:105A3800CA0D1CBF81F400010122A6E780B541EC24
:105A4800100BFFF767FF10EE100A80BD10B5044673
:105A58008078C10705D140F00400A0704FF0FF30F6
:105A680010BD0021D4E85F0FC4E8521F002AF9D105
:105A780008B1013805E0A16820468847B0F1FF3F2A
:105A880001DDC0B210BD01304FF0080008BF04208E
:105A9800A1780843E1E78A78D20711D0421C0FD0D9
:105AA800C0B2421CD1E8DF3F43B9C1E8D32F002B75
:105AB800F8D18A7802F0F7028A707047BFF32F8F07
:105AC8004FF0FF307047D4D42DE9F04F85B014461D
:105AD8000E468246002A27D4204600F0EFFC0546F1
