:1000000000040020590000006504000065000000A5
:10001000650000006500000065000000650000004C
:10002000000000000000000000000000650000006B
:100030006500000000000000650000006500000091
:100040004D0B0000E5050000E50500007D06000001
:080050004D0B0000F90B00004C
:1000580000F006F800F008FFFEE7D4D400BE7047B1
:100068002DE9F0414EF60850CEF200004FF4700131
:10007800C0F8801040F20001C0F2000101600020C9
:1000880000F01EFF00F0C8F8012000F019FF40F64C
:100098006474C0F20004266840F20000C2F2000056
:1000A80080F30A888EB160683746051D04E000BFFA
:1000B800013F05F10C0508D068790028F8D155E909
:1000C8000101091A00F009FFF2E7D4F80880B8F135
:1000D800000F13D0E068454600F1080704E000BFB0
:1000E800013D07F1100709D078790028F8D157E9C0
:1000F80002023968121A00F0F4FEF1E700F076F80F
:1001080000F024F9032000F041FA40F60E510C20CB
:10011800C4F208014FF6FF72013821F8022FFBD113
:10012800032000F007FA032000F030FA0420C4F29C
:100138000E000021016041608160C160032000F071
:10014800F9F9022000F0BCFE96B160684FF48075A2
:10015800071D03E0013E07F10C0709D07879B5EBDC
:10016800002FF7D157E90101091A00F0B6FEF1E7AF
:10017800B8F1000F16D0E0684FF4807600F108045B
:1001880005E000BFB8F1010804F110040AD0607955
:10019800B6EB002FF6D154E902022168121A00F0DA
:1001A800A0FEEFE740F2D444C2F20004204600F07B
:1001B800A9FE204600F0BAFE41F2EE1041F2EE111F
:1001C800C0F20000C0F20001091A8C10012C06DBF5
:1001D800051F00BF55F8040F8047013CFAD100F015
:1001E80063F90020BDE8F04100F0EEB84EF22000BF
:1001F800C4F20100817940F200420068C2F20002B4
:1002080052F82110C0F3026021FA00F040F21C41BC
:10021800C2F20001086070472DE9F0414EF28044B7
:10022800C4F201044CF204164AF20350C4F2010667
:1002380024F8820C0120308030880028FCD147F255
:1002480000010120C4F2000126F8040C886008604F
:1002580040F2004742F600504CF2002C4EF22005C6
:10026800C2F20007C0F2311041F200214FF40042FF
:1002780043F20063C0F6EB3CC4F20105C0F27A0118
:10028800C0F26E1387E80F00C7E9042CA879296823
:1002980057F82000C1F3026140F21C48C840C2F27E
:1002A8000008C8F80000002004F86D0C092085F843
:1002B8008200207810B96078800740D0207840B953
:1002C80001202070C820012100F080F82078012842
:1002D800FCD10020607020700020A874287F0007DF
:1002E800FCD543F2021028810020A872287F8006DE
:1002F800FCD50320307641F22120C2F201002860AB
:100308000520A871A879296857F82000C1F302616F
:10031800C840C8F8000042F20C00C4F20000F12105
:1003280001700121F02200F8041C02704FF42540EE
:10033800297485F8321024F8820CBDE8F0814FF456
:100348007A7000F001F8C7E77047D4D4B0B543F22B
:100358002404C4F208040025C8200121257100F0F6
:1003680035F8257020780028FCD1207840F002006C
:10037800207000BF20788007FCD4002004F8020C0D
:1003880014F8020C0028FBD1002004F11C0100BF66
:1003980011F8102002F07F0201F8102011F9102046
:1003A800002AFBD401300328F2D1012000F0EEF836
:1003B8004EF2BB41C4F20101002201200A70BDE8DF
:1003C800B04000F0B7B8D4D47047D4D440F21C423F
:1003D800C2F20002126841F20023C0F27A039A4284
:1003E80001FB00F00FD340F6FF01C0F23D011144BC
:1003F8004DF68362C4F21B32A1FB0212110DA0FB61
:100408000101E9B121E04CF6002348F63811C3F6A2
:100418009A33C0F24101B3FBF2F2884207D24FF49B
:100428007A7100FB01F0B0FBF2F0800808E092005E
:10043800B0FBF2F0884208D24FF47A7100FB01F069
:10044800002808BF704700F005B84FF0FF3000F0F3
:1004580001B8D4D401380028FCD170472DE9F04107
:1004680046F22018C4F20008B8F80000B8F82010C6
:1004780040F2204501EA0006B7B20024C2F20005A6
:1004880003E000BF0134102C0AD027FA04F0C0079B
:10049800F8D055F824100029F4D020468847F1E711
:1004A800A8F81060BDE8F08170B584B048F248063D
:1004B8000320C4F2000600F069F86FF0FF0041F273
:1004C800941430604FF0FF300021C0F20004012284
:1004D800CDE9020034F8113002FA01F5002B01F1E0
:1004E800010118BFA8430629F4D14EF280320190C9
:1004F800002001A9CEF2000251F8203006EB800559
:10050800AB6242F8203001300328F5D1032000F017
:1005180011F846F200310020C4F2000134F810202E
:10052800002A18BF41F8202001300628F6D104B06F
:1005380070BDD4D40122EFF3108182F3108840F209
:100548007C42C2F2000232F8103023B132F8103087
:10055800013B22F8103032F8102012B181F31088D4
:1005680070474EF2FE3CC4F2010C40F64872BCF8EB
:100578000030C0F2000232F8100043F4254222EAAB
:100588000000ACF8000081F31088704780B50122A4
:10059800EFF3108182F3108840F27C42C2F200022D
:1005A80032F810308BB94EF2FE3C40F64873C4F274
:1005B800010CC0F20003BCF800E033F8103043EA45
:1005C8000E0343F42543ACF8003032F81030013301
:1005D80022F8103081F3108880BDD4D470B590B063
:1005E800EFF303804FF0704101EB006040F264428A
:1005F8008015C2F200021458EFF3038001EB00608B
:1006080046F200318015C4F20001425822F48032CB
:10061800425040586268A1691288236A00208DF808
:100628000200ADF800208DF808000193F9B1E069E7
:10063800EC4690B1034666CB0DF1200EAEE866009D
:1006480093E866008EE86600BCE86C0001466CC161
:100658009CE86C006CC1A16900E060468847E069CD
:1006680028B108A96CC96CC091E86C006CC010B0C6
:1006780070BDD4D470B590B0EFF303804FF07041E3
:1006880001EB006040F264428015C2F20002145887
:10069800EFF3038001EB006046F200318015C4F2ED
:1006A8000001425822F480324250405801208DF80F
:1006B80002006068A1690088226AADF80000002085
:1006C8008DF808000192F9B1E069EC4690B1034653
:1006D80066CB0DF1200EAEE8660093E866008EE862
:1006E8006600BCE86C0001466CC19CE86C006CC1FB
:1006F800A16900E060468847E06928B108A96CC98B
:100708006CC091E86C006CC010B070BD2DE9F04170
:100718000A7C00230126032A88BF012306FA02F275
:100728000374C2600A7C49F20003C4F2160303EBA7
:1007380002228260D1E905234FF0000E0446416091
:10074800C361C0E9052ED1F81C80EFF3108386F34E
:10075800108844F210000E7CC4F208004FF00042EA
:10076800056822FA06F625EA06060660006883F39D
:100778001088A0684FF425430360A068C0F82CE0F7
:10078800A068C0F83CE0A068C0F848E0087A0D7896
:10079800C605032D4B6808BF06F580362F04042DC7
:1007A800A56828BF47EAC056EE62A0680261A06843
:1007B8004261A0688261A068C0F824E0A068C0F81F
:1007C80028E0D8F81800A268D061D8F81C00A26800
:1007D8001062A06838BF013B8366A06843660A7848
:1007E800D8F838C0012A3AD02AB948684FF0FF3201
:1007F80002EB500335E0D4E90106CB68B26E00780D
:10080800042838BF01322BB1934203D2042838BFE1
:10081800013B26E093424FF0000228BF0122776B8C
:10082800032807F0100607F00C07A7F10407B7FA2A
:1008380087F74FEA571740F2000EB3FA83F34FF0E9
:10084800010588BF85EA1617002FC0F2033E08BFCE
:100858005A09002A1CBF40F2000EC0F2022E4FF0C7
:10086800FF33A0684365A06883650878042803D32C
:10087800A068C365A0680366D8F83800B8BB98F8C4
:100888000000012815D1087898F80130022801D114
:10089800092606E001D9032603E00926002B08BF34
:1008A8000626180140EA8310304440EA0C0040F460
:1008B800807C98F80200012819D1087898F803304C
:1008C800022802D14FF4102609E002D94FF440362D
:1008D80005E04FF41026002B08BF4FF4C02618057A
:1008E80040EA8350304440EA0C0040F0807C606865
:1008F800C36993F83020D00705D0986AA2680138F8
:10090800D06493F83020900703D5D86AA2680138DC
:100918001065D8F834605EB1B078F2780B7C0006C8
:10092800092B40EA027318D8B06858B101220DE0CB
:10093800A06800228263A068C0F88820D8F8380030
:10094800F8B916E0F268002A18BF0122A068C0F8BA
:100958008820B068A268C2F88C00A0688363D8F8C1
:10096800380070B9F07E327F400240EA42604CEABB
:10097800000C98F8200098F821204CEA403040EA12
:10098800427C98F83000A26800284FF4A00008BF05
:100998004FF4AA0010640878012804D1A068002246
:1009A800C264A0680265A0684EF00302C0F834C0B3
:1009B800A0680263A0684EF001020263D4E9020253
:1009C800C26091F91200497C224600F041F998F979
:1009D800240098F82210224600F03AF998F92500E8
:1009E80098F82310224600F033F92EB196F9010049
:1009F8003178224600F02CF945F25401C0F2470143
:100A080000202160BDE8F081D0E9021200204A6090
:100A18007047D4D42DE9F041D0E9013502F0030C38
:100A2800AC6E1B78042B38BF0134A9B1A14213D294
:100A3800042B0B4638BF013B1407D5F830E04FF0C4
:100A4800040458BF0224960705F14C0529D444EA4A
:100A58000C0445F824302AE0A1424FF0000428BFD6
:100A680001246E6B102707EA0217FE4006F01007F4
:100A780006F00C06043EB6FA86F6B1FA81FE76094F
:100A8800032B4FF0010888BF88EA1716002E08BF0D
:100A98004FEA5E140323D5F830E0002C18BF022378
:100AA80006E045F82430856805EB840423650023B7
:100AB800846855062CD4022A2FD173B3A26E4068DD
:100AC8000078042838BF013209B1914225D39142F8
:100AD8004FF0000228BF0122656B032805F4801639
:100AE80005F44025A5F58025B5FA85F54FEA551595
:100AF8004FF0010788BF87EA1655002D4FF0030015
:100B0800B1FA81F108BF4A09002A18BF022005E09E
:100B1800216C41F480012164846818462EF4403128
:100B280041EA0341BCF1010F18BF8E462EF0407216
:100B3800BCF1000F18BF42EA006100202163BDE844
:100B4800F081D4D410B584B0EFF303804FF0704136
:100B580001EB006146F200308A15C4F20000135818
:100B680023F480331350135840F26443C2F2000355
:100B78009C5862681278012A20D1D4E90223091608
:100B88009360A26800239364A268D364A268136583
:100B980050F8212022F4803240F8212050F821001A
:100BA80001F01F00012202FA00F04EF280224909EA
:100BB800CEF20002BFF35F8F42F821006169A1B154
:100BC800A06930B18368D0E900C20393CDE901C2BE
:100BD80000E001A8E369002202718260036088478F
:100BE800A06910B101AB0ECB0EC004B010BDD4D4B7
:100BF80010B584B0EFF303804FF0704101EB006053
:100C080046F200318015C4F20001425822F48032C5
:100C18004250415840F26441C2F200010C58A069A8
:100C280030B18268D0E900130392CDE9011300E0E6
:100C380001A80321017100218160E16962690160F5
:100C48009047A06910B101AB0ECB0EC004B010BD27
:100C5800002848BF70474EF2001CCEF2000C090174
:100C680040EA0C0383F8001340F26441C2F2000129
:100C780041F8202046F20031C4F2000151F820204A
:100C880022F4803241F8202051F8201000F01F0192
:100C9800012202FA01F11C2202EAD00040EA0C0209
:100CA800BFF35F8FC2F8801140F80C107047D4D49E
:100CB80080B545F25422C5F24F020260084600F0A2
:100CC80003F8002080BDD4D470B5044600F062F863
:100CD80040F2604CEFF31080012181F31088C2F2DA
:100CE800000CDCF8001039B940F60351C4F20801D1
:100CF80000220A7040220A70DCF800100131CCF89A
:100D0800001080F31088208828B340F6000E0021D8
:100D1800C4F2080E08E000BF0EEB801040F8223045
:100D280020880131814216D2606800EBC1029288A6
:100D380050F83130100ADD03D2B2EDD50EEB801534
:100D480055F8226026F4803645F8226023F4803670
:100D580045F82260E0E7EFF31081012080F3108866
:100D6800DCF8000020B1DCF800000138CCF8000005
:100D7800DCF8000010B181F3108870BD40F6035014
:100D8800C4F20800002202708022027081F31088E9
:100D980070BDD4D42DE9F04F81B0044600880028F6
:100DA8005ED043F240084EF2BB4A41F2480BC4F20F
:100DB80008080026C4F2010AC0F2000B4FF001092E
:100DC80004E000BF20880136864249D2002708E0A7
:100DD80008F81700C8200121FFF7F8FA0137032F98
:100DE800F0D060683BF8172000EBC600818891427C
:100DF800F4D100689AF8001000F0B85009FA07F525
:100E0800B0F1807F05EA010014D150B90120FFF745
:100E1800BDFB9AF8000028438AF800000120FFF77C
:100E280089FB18F917000028D8D418F8170040F0E3
:100E38008000CDE750B10120FFF7A8FB9AF8000029
:100E4800A8438AF800000120FFF774FB18F917007F
:100E5800B0F1FF3FC2DC18F8170000F07F00B7E7D9
:100E680001B0BDE8F08FD4D480B500F003F80020BD
:100E780080BDD4D4B0B540F2B044C2F2000441F20F
:100E88003011C0F200012046FFF740FC40F29045C7
:100E9800C2F2000541F2B001C0F200012846FFF796
:100EA80035FC2046FFF7B0FD2846FFF7ADFD284684
:100EB8004FF4FA710022BDE8B040FFF7ABBDD4D4BF
:100EC800022818BF704740F2884041F28811C2F2E8
:100ED8000000C0F20001FFF7EBBE0A46002100F057
:100EE80009B810B500239A4203D0CC5CC45401332E
:100EF800F9E710BD00239A4208BF7047C154013377
:100F0800F9E7D4D410B505490446054AFFF7E9FFC7
:100F1800044805492044FFF7E0FF10BD58000000D1
:100F28000000000000000000000000000249401A14
:100F380002490860704700BF08000000D004002084
:100F480001000200080010002000D4D4000000684E
:100F580000000068000000200000002005000000DC
:100F68007C0F000009000000B80F0000020000001C
:100F7800540F00000000006800000068000100082D
:100F88000000006800000068000100080000002060
:100F980000000020000000031C040020D4040020EE
:100FA80000000003D4040020D40400200000000343
:100FB80000000068000000680000006000010C08E4
:100FC80000000068000000680000007000010908C7
:100FD8000000006800000068000000080001020826
:100FE80000000068000000685800000000010108C7
:100FF80000000020000000200000006000010C0339
:10100800000000200000002000000070000109031B
:10101800000000200000002000000008000002037B
:10102800000000200000002058000000000001031C
:10103800D4040020D404002058000000000001035C
:10104800020403040404D4D40205000000000000D4
:101058000A0000000A000000000000000000000074
:101068000000000000000000010001000000000076
:101078000000000000000000000000000000000068
:1010880000000000000000000000FFFFDFDF00009C
:1010980000000000000000000000000050100000E8
:1010A800030113010000000004000000E204000036
:1010B80000000000710200000102040000000000AE
:1010C8000000000070100000FFDF000000000000BA
:1010D8000000000000000000000000000000000008
:1010E80000000000000000000100000000000000F7
:1010F80000000000000000000000000000000000E8
:1011080000000000000000000000FFFFDFDF00001B
:10111800000000000000000000000000D0100000E7
:10112800000000000000000000000000E2040000D1
:101138000000000071020000000200000000000032
:1011480000000000F0100000008000000000000017
:1011580000800000010000000000010008010000FC
:101168000000010309010000000001030A0100005A
:101178000000010000030000000001030F0400004C
:10118800070000005011000000000000C6006001C8
:1011980066016701CF00D00000000206362E322E0D
:1011A80030004275696C7420776974682052656EE6
:1011B8006573617320416476616E63656420466C73
:1011C800657869626C6520536F6674776172652013
:1011D8005061636B6167652076657273696F6E2015
:0611E800362E322E30000D
:020000040100F9
:04A10000FFFFFFFF5F
:04A20000FFFDFFFF60
:04A28000F8F8FFFFEC
:0400000300000059A0
:00000001FF
