:1000000000040020410000004D0400004D000000ED
:100010004D0000004D0000004D0000004D000000AC
:100020000000000000000000000000004D00000083
:100030004D000000000000004D0000004D000000D9
:1000400000F006F800F090FBFEE7D4D400BE704745
:100050002DE9F0414EF60850CEF200004FF4700149
:10006000C0F8801040F20001C0F2000101600020E1
:1000700000F082FB00F0C8F8012000F07DFB40F6A4
:100080001404C0F20004266840F20000C2F200002E
:1000900080F30A888EB160683746051D04E000BF12
:1000A000013F05F10C0508D068790028F8D155E921
:1000B0000101091A00F06DFBF2E7D4F80880B8F1ED
:1000C000000F13D0E068454600F1080704E000BFC8
:1000D000013D07F1100709D078790028F8D157E9D8
:1000E00002023968121A00F058FBF1E700F076F8C6
:1000F00000F024F9032000F033FA40F60E510C20F2
:10010000C4F208014FF6FF72013821F8022FFBD12B
:10011000032000F0F9F9032000F022FA0420C4F2D1
:100120000E000021016041608160C160032000F089
:10013000EBF9022000F020FB96B160684FF4807567
:10014000071D03E0013E07F10C0709D07879B5EBF4
:10015000002FF7D157E90101091A00F01AFBF1E766
:10016000B8F1000F16D0E0684FF4807600F1080473
:1001700005E000BFB8F1010804F110040AD060796D
:10018000B6EB002FF6D154E902022168121A00F0F2
:1001900004FBEFE740F27C44C2F20004204600F08A
:1001A0000DFB204600F01EFB40F66A1040F66A1177
:1001B000C0F20000C0F20001091A8C10012C06DB0D
:1001C000051F00BF55F8040F8047013CFAD100F02D
:1001D00063F90020BDE8F04100F0EEB84EF22000D7
:1001E000C4F20100817940F200420068C2F20002CC
:1001F00052F82110C0F3026021FA00F040F21C41D5
:10020000C2F20001086070472DE9F0414EF28044CF
:10021000C4F201044CF204164AF20350C4F201067F
:1002200024F8820C0120308030880028FCD147F26D
:1002300000010120C4F2000126F8040C8860086067
:1002400040F2004742F600504CF2002C4EF22005DE
:10025000C2F20007C0F2311041F200214FF4004217
:1002600043F20063C0F6EB3CC4F20105C0F27A0130
:10027000C0F26E1387E80F00C7E9042CA87929683B
:1002800057F82000C1F3026140F21C48C840C2F296
:100290000008C8F80000002004F86D0C092085F85B
:1002A0008200207810B96078800740D0207840B96B
:1002B00001202070C820012100F080F8207801285A
:1002C000FCD10020607020700020A874287F0007F7
:1002D000FCD543F2021028810020A872287F8006F6
:1002E000FCD50320307641F22120C2F201002860C3
:1002F0000520A871A879296857F82000C1F3026188
:10030000C840C8F8000042F20C00C4F20000F1211D
:1003100001700121F02200F8041C02704FF4254006
:10032000297485F8321024F8820CBDE8F0814FF46E
:100330007A7000F001F8C7E77047D4D4B0B543F243
:100340002404C4F208040025C8200121257100F00E
:1003500035F8257020780028FCD1207840F0020084
:10036000207000BF20788007FCD4002004F8020C25
:1003700014F8020C0028FBD1002004F11C0100BF7E
:1003800011F8102002F07F0201F8102011F910205E
:10039000002AFBD401300328F2D1012000F0E0F85C
:1003A0004EF2BB41C4F20101002201200A70BDE8F7
:1003B000B04000F0A9B8D4D47047D4D440F21C4265
:1003C000C2F20002126841F20023C0F27A039A429C
:1003D00001FB00F00FD340F6FF01C0F23D011144D4
:1003E0004DF68362C4F21B32A1FB0212110DA0FB79
:1003F0000101E9B121E04CF6002348F63811C3F6BB
:100400009A33C0F24101B3FBF2F2884207D24FF4B3
:100410007A7100FB01F0B0FBF2F0800808E0920076
:10042000B0FBF2F0884208D24FF47A7100FB01F081
:10043000002808BF704700F005B84FF0FF3000F00B
:1004400001B8D4D401380028FCD170472DE9F0411F
:1004500046F22018C4F20008B8F80000B8F82010DE
:1004600040F2204501EA0006B7B20024C2F20005BE
:1004700003E000BF0134102C0AD027FA04F0C007B3
:10048000F8D055F824100029F4D020468847F1E729
:10049000A8F81060BDE8F08170B584B048F2480457
:1004A0000320C4F2000400F05BF840F2F871C0F2DF
:1004B00000016FF0FF000E8820604FF0FF300390C6
:1004C0000290002E01901CBF6FF0010001904EF2CF
:1004D0008032002001A9CEF2000200BF51F8203086
:1004E00004EB8005AB6242F8203001300328F5D1DF
:1004F000032000F009F8002E1EBF46F20030C4F2BF
:100500000000066004B070BD0122EFF3108182F399
:10051000108840F26442C2F2000232F8103023B177
:1005200032F81030013B22F8103032F8102012B1AE
:1005300081F3108870474EF2FE3CC4F2010C40F289
:10054000FA72BCF80030C0F2000232F8100043F436
:10055000254222EA0000ACF8000081F310887047C1
:1005600080B50122EFF3108182F3108840F26442DB
:10057000C2F2000232F810308BB94EF2FE3C40F26B
:10058000FA73C4F2010CC0F20003BCF800E033F8C7
:10059000103043EA0E0343F42543ACF8003032F840
:1005A0001030013322F8103081F3108880BDD4D48C
:1005B00080B545F25422C5F24F020260084600F0B1
:1005C00003F8002080BDD4D470B5044600F062F872
:1005D00040F2604CEFF31080012181F31088C2F2E9
:1005E000000CDCF8001039B940F60351C4F20801E0
:1005F00000220A7040220A70DCF800100131CCF8A9
:10060000001080F31088208828B340F6000E0021E7
:10061000C4F2080E08E000BF0EEB801040F8223054
:1006200020880131814216D2606800EBC1029288B5
:1006300050F83130100ADD03D2B2EDD50EEB801543
:1006400055F8226026F4803645F8226023F480367F
:1006500045F82260E0E7EFF31081012080F3108875
:10066000DCF8000020B1DCF800000138CCF8000014
:10067000DCF8000010B181F3108870BD40F6035023
:10068000C4F20800002202708022027081F31088F8
:1006900070BDD4D42DE9F04F81B004460088002805
:1006A0005ED043F240084EF2BB4A40F6F80BC4F26B
:1006B00008080026C4F2010AC0F2000B4FF001093D
:1006C00004E000BF20880136864249D2002708E0B6
:1006D00008F81700C8200121FFF770FE0137032F2B
:1006E000F0D060683BF8172000EBC600818891428B
:1006F000F4D100689AF8001000F0B85009FA07F534
:10070000B0F1807F05EA010014D150B90120FFF754
:1007100027FF9AF8000028438AF800000120FFF71D
:10072000F3FE18F917000028D8D418F8170040F085
:100730008000CDE750B10120FFF712FF9AF80000CA
:10074000A8438AF800000120FFF7DEFE18F9170021
:10075000B0F1FF3FC2DC18F8170000F07F00B7E7E8
:1007600001B0BDE8F08FD4D480B500F003F80020CC
:1007700080BDD4D47047D4D4022818BF704740F24B
:10078000704040F61011C2F20000C0F20001FFF705
:100790000FBF0A46002100F009B810B500239A42A5
:1007A00003D0CC5CC4540133F9E710BD00239A4256
:1007B00008BF7047C1540133F9E7D4D410B50549D7
:1007C0000446054AFFF7E9FF044805492044FFF7BE
:1007D000E0FF10BD4000000000000000000000002D
:1007E000000000000249401A02490860704700BF3B
:1007F000080000007804002000000100020008004A
:1008000010002000000000680000006800000020C8
:1008100000000020050000002C0800000900000076
:1008200068080000020000000408000000000068E2
:100830000000006800010008000000680000006877
:10084000000100080000002000000020000000035C
:100850001C0400207C040020000000037C04002015
:100860007C04002000000003000000680000006815
:100870000000006000010C08000000680000006833
:100880000000007000010908000000680000006816
:100890000000000800010208000000680000006875
:1008A00040000000000101080000002000000020BE
:1008B0000000006000010C03000000200000002088
:1008C000000000700001090300000020000000206B
:1008D00000000008000002030000002000000020CB
:1008E00040000000000001037C0400207C04002084
:1008F0004000000000000103020403040404D4D4F7
:1009000000000100080100000000010000030000D9
:1009100002000000000900000000000000000206C4
:10092000362E322E30004275696C742077697468F7
:100930002052656E6573617320416476616E6365F4
:100940006420466C657869626C6520536F667477C5
:10095000617265205061636B6167652076657273B3
:0A096000696F6E20362E322E300033
:020000040100F9
:04A10000FFFFFFFF5F
:04A20000FFFDFFFF60
:04A28000F8F8FFFFEC
:0400000300000041B8
:00000001FF
